{
  "transactions": [
    {
      "hash": "0xcc324897a685c22025a8adcd81c89e7abaebbb496859b6845fdefbc6d098e892",
      "transactionType": "CALL",
      "contractName": null,
      "contractAddress": "0x5fcbb6193b5dd9771f78e36b6811f3a05fbc684b",
      "function": "approve(address,uint256)",
      "arguments": [
        "0x1238536071E1c677A632429e3655c799b22cDA52",
        "115792089237316195423570985008687907853269984665640564039457584007913129639935"
      ],
      "transaction": {
        "from": "0x599cbb31cd468df8022502e69710b01ccf53efa4",
        "to": "0x5fcbb6193b5dd9771f78e36b6811f3a05fbc684b",
        "gas": "0x9382",
        "value": "0x0",
        "input": "0x095ea7b30000000000000000000000001238536071e1c677a632429e3655c799b22cda52ffffffffffffffffffffffffffffffffffffffffffffffffffffffffffffffff",
        "nonce": "0xa",
        "chainId": "0xaa36a7"
      },
      "additionalContracts": [],
      "isFixedGasLimit": false
    },
    {
      "hash": "0xd09fdf46564563484af73f992745b228180b04f1b11d6c07c7c8c702ae6f2047",
      "transactionType": "CALL",
      "contractName": null,
      "contractAddress": "0x02b3d7aad00aefdb8f3fe1d5e3fdb7ed78cc41a3",
      "function": "approve(address,uint256)",
      "arguments": [
        "0x1238536071E1c677A632429e3655c799b22cDA52",
        "115792089237316195423570985008687907853269984665640564039457584007913129639935"
      ],
      "transaction": {
        "from": "0x599cbb31cd468df8022502e69710b01ccf53efa4",
        "to": "0x02b3d7aad00aefdb8f3fe1d5e3fdb7ed78cc41a3",
        "gas": "0x9382",
        "value": "0x0",
        "input": "0x095ea7b30000000000000000000000001238536071e1c677a632429e3655c799b22cda52ffffffffffffffffffffffffffffffffffffffffffffffffffffffffffffffff",
        "nonce": "0xb",
        "chainId": "0xaa36a7"
      },
      "additionalContracts": [],
      "isFixedGasLimit": false
    },
    {
      "hash": "0xcc1a16bebad43dafb844d796328a51993d1838f85f1106e376ee7aed7ff91240",
      "transactionType": "CALL",
      "contractName": null,
      "contractAddress": "0x1238536071e1c677a632429e3655c799b22cda52",
      "function": "mint((address,address,uint24,int24,int24,uint256,uint256,uint256,uint256,address,uint256))",
      "arguments": [
        "(0x02b3d7aAd00aEFDB8f3fe1d5E3fdB7ed78CC41A3, 0x5fCBb6193b5dD9771f78e36b6811f3A05FBc684B, 3000, -887220, 887220, 10000000000000000000000000, 100000000000000000000000, 0, 0, 0x599Cbb31cD468Df8022502e69710b01cCf53EfA4, 1774098636)"
      ],
      "transaction": {
        "from": "0x599cbb31cd468df8022502e69710b01ccf53efa4",
        "to": "0x1238536071e1c677a632429e3655c799b22cda52",
        "gas": "0x716d9",
        "value": "0x0",
        "input": "0x8831645600000000000000000000000002b3d7aad00aefdb8f3fe1d5e3fdb7ed78cc41a30000000000000000000000005fcbb6193b5dd9771f78e36b6811f3a05fbc684b0000000000000000000000000000000000000000000000000000000000000bb8fffffffffffffffffffffffffffffffffffffffffffffffffffffffffff2764c00000000000000000000000000000000000000000000000000000000000d89b4000000000000000000000000000000000000000000084595161401484a00000000000000000000000000000000000000000000000000152d02c7e14af680000000000000000000000000000000000000000000000000000000000000000000000000000000000000000000000000000000000000000000000000000000000000000000000000000000000000599cbb31cd468df8022502e69710b01ccf53efa40000000000000000000000000000000000000000000000000000000069be98cc",
        "nonce": "0xc",
        "chainId": "0xaa36a7"
      },
      "additionalContracts": [],
      "isFixedGasLimit": false
    }
  ],
  "receipts": [
    {
      "status": "0x1",
      "cumulativeGasUsed": "0xa42916",
      "logs": [
        {
          "address": "0x5fcbb6193b5dd9771f78e36b6811f3a05fbc684b",
          "topics": [
            "0x8c5be1e5ebec7d5bd14f71427d1e84f3dd0314c0f7b2291e5b200ac8c7c3b925",
            "0x000000000000000000000000599cbb31cd468df8022502e69710b01ccf53efa4",
            "0x0000000000000000000000001238536071e1c677a632429e3655c799b22cda52"
          ],
          "data": "0xffffffffffffffffffffffffffffffffffffffffffffffffffffffffffffffff",
          "blockHash": "0x38647387355e5a50394814bb4bfb1b7b133fe992282110ad71e3c3ec6da80604",
          "blockNumber": "0xa01353",
          "blockTimestamp": "0x69be8aec",
          "transactionHash": "0xcc1a16bebad43dafb844d796328a51993d1838f85f1106e376ee7aed7ff91240",
          "transactionIndex": "0x55",
          "logIndex": "0x173",
          "removed": false
        }
      ],
      "logsBloom": "0x00000000000000000000000000000000000000000000000000000000000000000000000010000000000000000000000000000000000000000000000000200000000000800000000000000000000000000000000004000000000000000001000000000000000000000000000000000000000000000000000000000000000000000000002000000000000000010000000000000000000000000000000000000000020000000000000000000000000000000000000000000000000000000000000000000000000000000000000000000000002000000000000000000000800000000010000004000000000000000000000000000000000000000000000000000000",
      "type": "0x2",
      "transactionHash": "0xcc1a16bebad43dafb844d796328a51993d1838f85f1106e376ee7aed7ff91240",
      "transactionIndex": "0x55",
      "blockHash": "0x38647387355e5a50394814bb4bfb1b7b133fe992282110ad71e3c3ec6da80604",
      "blockNumber": "0xa01353",
      "gasUsed": "0x6acc",
      "effectiveGasPrice": "0xf4253",
      "from": "0x599cbb31cd468df8022502e69710b01ccf53efa4",
      "to": "0x5fcbb6193b5dd9771f78e36b6811f3a05fbc684b",
      "contractAddress": null
    },
    {
      "status": "0x1",
      "cumulativeGasUsed": "0xa493e2",
      "logs": [
        {
          "address": "0x02b3d7aad00aefdb8f3fe1d5e3fdb7ed78cc41a3",
          "topics": [
            "0x8c5be1e5ebec7d5bd14f71427d1e84f3dd0314c0f7b2291e5b200ac8c7c3b925",
            "0x000000000000000000000000599cbb31cd468df8022502e69710b01ccf53efa4",
            "0x0000000000000000000000001238536071e1c677a632429e3655c799b22cda52"
          ],
          "data": "0xffffffffffffffffffffffffffffffffffffffffffffffffffffffffffffffff",
          "blockHash": "0x38647387355e5a50394814bb4bfb1b7b133fe992282110ad71e3c3ec6da80604",
          "blockNumber": "0xa01353",
          "blockTimestamp": "0x69be8aec",
          "transactionHash": "0xcc324897a685c22025a8adcd81c89e7abaebbb496859b6845fdefbc6d098e892",
          "transactionIndex": "0x56",
          "logIndex": "0x174",
          "removed": false
        }
      ],
      "logsBloom": "0x00000000000000000000000000000000000000000000000000000000000000000000000000000000000000000000000000000000000000000000000000200000000000800000000000000000000000000000000000000000000000000001000000000000000000000000000000000000008000000000000000000000000000000000002000000000008000010000000000000000000000000000000000000000020000000000000000000000000000000000000000000000000000000000000000000000000000000000000000000000002000000000000000000000800000000010000000000000000000000000000000000000000000040000000000000000",
      "type": "0x2",
      "transactionHash": "0xcc324897a685c22025a8adcd81c89e7abaebbb496859b6845fdefbc6d098e892",
      "transactionIndex": "0x56",
      "blockHash": "0x38647387355e5a50394814bb4bfb1b7b133fe992282110ad71e3c3ec6da80604",
      "blockNumber": "0xa01353",
      "gasUsed": "0x6acc",
      "effectiveGasPrice": "0xf4253",
      "from": "0x599cbb31cd468df8022502e69710b01ccf53efa4",
      "to": "0x02b3d7aad00aefdb8f3fe1d5e3fdb7ed78cc41a3",
      "contractAddress": null
    },
    {
      "status": "0x1",
      "cumulativeGasUsed": "0xa9b5ce",
      "logs": [
        {
          "address": "0x02b3d7aad00aefdb8f3fe1d5e3fdb7ed78cc41a3",
          "topics": [
            "0xddf252ad1be2c89b69c2b068fc378daa952ba7f163c4a11628f55a4df523b3ef",
            "0x000000000000000000000000599cbb31cd468df8022502e69710b01ccf53efa4",
            "0x000000000000000000000000b0223ea2626d7bee26ab0f0fd0ad9417012719c4"
          ],
          "data": "0x00000000000000000000000000000000000000000000003635c9adc5de9ffde6",
          "blockHash": "0x38647387355e5a50394814bb4bfb1b7b133fe992282110ad71e3c3ec6da80604",
          "blockNumber": "0xa01353",
          "blockTimestamp": "0x69be8aec",
          "transactionHash": "0xd09fdf46564563484af73f992745b228180b04f1b11d6c07c7c8c702ae6f2047",
          "transactionIndex": "0x57",
          "logIndex": "0x175",
          "removed": false
        },
        {
          "address": "0x5fcbb6193b5dd9771f78e36b6811f3a05fbc684b",
          "topics": [
            "0xddf252ad1be2c89b69c2b068fc378daa952ba7f163c4a11628f55a4df523b3ef",
            "0x000000000000000000000000599cbb31cd468df8022502e69710b01ccf53efa4",
            "0x000000000000000000000000b0223ea2626d7bee26ab0f0fd0ad9417012719c4"
          ],
          "data": "0x00000000000000000000000000000000000000000000152d02c7e14af67ffffd",
          "blockHash": "0x38647387355e5a50394814bb4bfb1b7b133fe992282110ad71e3c3ec6da80604",
          "blockNumber": "0xa01353",
          "blockTimestamp": "0x69be8aec",
          "transactionHash": "0xd09fdf46564563484af73f992745b228180b04f1b11d6c07c7c8c702ae6f2047",
          "transactionIndex": "0x57",
          "logIndex": "0x176",
          "removed": false
        },
        {
          "address": "0xb0223ea2626d7bee26ab0f0fd0ad9417012719c4",
          "topics": [
            "0x7a53080ba414158be7ec69b987b5fb7d07dee101fe85488f0853ae16239d0bde",
            "0x0000000000000000000000001238536071e1c677a632429e3655c799b22cda52",
            "0xfffffffffffffffffffffffffffffffffffffffffffffffffffffffffff2764c",
            "0x00000000000000000000000000000000000000000000000000000000000d89b4"
          ],
          "data": "0x0000000000000000000000001238536071e1c677a632429e3655c799b22cda5200000000000000000000000000000000000000000000021e19e0c9bab240003600000000000000000000000000000000000000000000003635c9adc5de9ffde600000000000000000000000000000000000000000000152d02c7e14af67ffffd",
          "blockHash": "0x38647387355e5a50394814bb4bfb1b7b133fe992282110ad71e3c3ec6da80604",
          "blockNumber": "0xa01353",
          "blockTimestamp": "0x69be8aec",
          "transactionHash": "0xd09fdf46564563484af73f992745b228180b04f1b11d6c07c7c8c702ae6f2047",
          "transactionIndex": "0x57",
          "logIndex": "0x177",
          "removed": false
        },
        {
          "address": "0x1238536071e1c677a632429e3655c799b22cda52",
          "topics": [
            "0xddf252ad1be2c89b69c2b068fc378daa952ba7f163c4a11628f55a4df523b3ef",
            "0x0000000000000000000000000000000000000000000000000000000000000000",
            "0x000000000000000000000000599cbb31cd468df8022502e69710b01ccf53efa4",
            "0x0000000000000000000000000000000000000000000000000000000000036f1b"
          ],
          "data": "0x",
          "blockHash": "0x38647387355e5a50394814bb4bfb1b7b133fe992282110ad71e3c3ec6da80604",
          "blockNumber": "0xa01353",
          "blockTimestamp": "0x69be8aec",
          "transactionHash": "0xd09fdf46564563484af73f992745b228180b04f1b11d6c07c7c8c702ae6f2047",
          "transactionIndex": "0x57",
          "logIndex": "0x178",
          "removed": false
        },
        {
          "address": "0x1238536071e1c677a632429e3655c799b22cda52",
          "topics": [
            "0x3067048beee31b25b2f1681f88dac838c8bba36af25bfb2b7cf7473a5847e35f",
            "0x0000000000000000000000000000000000000000000000000000000000036f1b"
          ],
          "data": "0x00000000000000000000000000000000000000000000021e19e0c9bab240003600000000000000000000000000000000000000000000003635c9adc5de9ffde600000000000000000000000000000000000000000000152d02c7e14af67ffffd",
          "blockHash": "0x38647387355e5a50394814bb4bfb1b7b133fe992282110ad71e3c3ec6da80604",
          "blockNumber": "0xa01353",
          "blockTimestamp": "0x69be8aec",
          "transactionHash": "0xd09fdf46564563484af73f992745b228180b04f1b11d6c07c7c8c702ae6f2047",
          "transactionIndex": "0x57",
          "logIndex": "0x179",
          "removed": false
        }
      ],
      "logsBloom": "0x00002000000000000001100000000000000000000000000000000000000000000000000010000000002000000000000000000000000000000400000000080000000000800000000000000008000000000000000004000000000000000001000020000000020000000000000000000800008000000800000000000010000000000000002008000000008000010000000002000000000000000000002002000000000200800000000000000000001000020000000000000000000400002000000000000002000000000000080000021000002000000000000000000000800020000000000004000100000000000004000000000000000000040000000000000800",
      "type": "0x2",
      "transactionHash": "0xd09fdf46564563484af73f992745b228180b04f1b11d6c07c7c8c702ae6f2047",
      "transactionIndex": "0x57",
      "blockHash": "0x38647387355e5a50394814bb4bfb1b7b133fe992282110ad71e3c3ec6da80604",
      "blockNumber": "0xa01353",
      "gasUsed": "0x521ec",
      "effectiveGasPrice": "0xf4253",
      "from": "0x599cbb31cd468df8022502e69710b01ccf53efa4",
      "to": "0x1238536071e1c677a632429e3655c799b22cda52",
      "contractAddress": null
    }
  ],
  "libraries": [],
  "pending": [],
  "returns": {},
  "timestamp": 1774095085579,
  "chain": 11155111,
  "commit": null
}