{
  "transactions": [
    {
      "hash": "0x8d896a88d01a0115688c57cab1f8edd4ef38255898febe4eb5859a6aeb14338e",
      "transactionType": "CALL",
      "contractName": null,
      "contractAddress": "0x1238536071e1c677a632429e3655c799b22cda52",
      "function": "transferFrom(address,address,uint256)",
      "arguments": [
        "0x599Cbb31cD468Df8022502e69710b01cCf53EfA4",
        "0x000000000000000000000000000000000000dEaD",
        "225051"
      ],
      "transaction": {
        "from": "0x599cbb31cd468df8022502e69710b01ccf53efa4",
        "to": "0x1238536071e1c677a632429e3655c799b22cda52",
        "gas": "0x1f288",
        "value": "0x0",
        "input": "0x23b872dd000000000000000000000000599cbb31cd468df8022502e69710b01ccf53efa4000000000000000000000000000000000000000000000000000000000000dead0000000000000000000000000000000000000000000000000000000000036f1b",
        "nonce": "0xd",
        "chainId": "0xaa36a7"
      },
      "additionalContracts": [],
      "isFixedGasLimit": false
    }
  ],
  "receipts": [
    {
      "status": "0x1",
      "cumulativeGasUsed": "0x9e0767",
      "logs": [
        {
          "address": "0x1238536071e1c677a632429e3655c799b22cda52",
          "topics": [
            "0x8c5be1e5ebec7d5bd14f71427d1e84f3dd0314c0f7b2291e5b200ac8c7c3b925",
            "0x000000000000000000000000599cbb31cd468df8022502e69710b01ccf53efa4",
            "0x0000000000000000000000000000000000000000000000000000000000000000",
            "0x0000000000000000000000000000000000000000000000000000000000036f1b"
          ],
          "data": "0x",
          "blockHash": "0x5a11d47042cbc7fac01c66e450cb0c27852588492336b13e6bc9cb17d8e0353e",
          "blockNumber": "0xa013c9",
          "blockTimestamp": "0x69be90c8",
          "transactionHash": "0x8d896a88d01a0115688c57cab1f8edd4ef38255898febe4eb5859a6aeb14338e",
          "transactionIndex": "0x64",
          "logIndex": "0xfa",
          "removed": false
        },
        {
          "address": "0x1238536071e1c677a632429e3655c799b22cda52",
          "topics": [
            "0xddf252ad1be2c89b69c2b068fc378daa952ba7f163c4a11628f55a4df523b3ef",
            "0x000000000000000000000000599cbb31cd468df8022502e69710b01ccf53efa4",
            "0x000000000000000000000000000000000000000000000000000000000000dead",
            "0x0000000000000000000000000000000000000000000000000000000000036f1b"
          ],
          "data": "0x",
          "blockHash": "0x5a11d47042cbc7fac01c66e450cb0c27852588492336b13e6bc9cb17d8e0353e",
          "blockNumber": "0xa013c9",
          "blockTimestamp": "0x69be90c8",
          "transactionHash": "0x8d896a88d01a0115688c57cab1f8edd4ef38255898febe4eb5859a6aeb14338e",
          "transactionIndex": "0x64",
          "logIndex": "0xfb",
          "removed": false
        }
      ],
      "logsBloom": "0x00000000000010000000000000000000000000000000000000000000000000000000000000000000000000000000000000000000000000000000000000200000000000800000000000000008000000000000000000000000000000000001000020000000020000000000000000000800000000000000000000000010000000000000002000000000000004000000000002000000000000000000000000000000020000000000000000000000001000000000000000000000000000002000000000000402000000000000000000020000000000000000000000000000000020000010000000000100000000000000000000000000000000000000000000000000",
      "type": "0x2",
      "transactionHash": "0x8d896a88d01a0115688c57cab1f8edd4ef38255898febe4eb5859a6aeb14338e",
      "transactionIndex": "0x64",
      "blockHash": "0x5a11d47042cbc7fac01c66e450cb0c27852588492336b13e6bc9cb17d8e0353e",
      "blockNumber": "0xa013c9",
      "gasUsed": "0x168ef",
      "effectiveGasPrice": "0xf4253",
      "from": "0x599cbb31cd468df8022502e69710b01ccf53efa4",
      "to": "0x1238536071e1c677a632429e3655c799b22cda52",
      "contractAddress": null
    }
  ],
  "libraries": [],
  "pending": [],
  "returns": {},
  "timestamp": 1774096586716,
  "chain": 11155111,
  "commit": null
}