{
  "transactions": [
    {
      "hash": "0x2807158395bc0045d33cf3122890c166b7620498493d8194f32496462c3d93d2",
      "transactionType": "CALL",
      "contractName": null,
      "contractAddress": "0x02b3d7aad00aefdb8f3fe1d5e3fdb7ed78cc41a3",
      "function": "approve(address,uint256)",
      "arguments": [
        "0xeE567Fe1712Faf6149d80dA1E6934E354124CfE3",
        "10000000000000000000000000"
      ],
      "transaction": {
        "from": "0x599cbb31cd468df8022502e69710b01ccf53efa4",
        "to": "0x02b3d7aad00aefdb8f3fe1d5e3fdb7ed78cc41a3",
        "gas": "0xfd53",
        "value": "0x0",
        "input": "0x095ea7b3000000000000000000000000ee567fe1712faf6149d80da1e6934e354124cfe3000000000000000000000000000000000000000000084595161401484a000000",
        "nonce": "0x10",
        "chainId": "0xaa36a7"
      },
      "additionalContracts": [],
      "isFixedGasLimit": false
    },
    {
      "hash": "0x8cc5d4f04b460e455e30576763507b217429b48cc792603da05992d1b60c7a44",
      "transactionType": "CALL",
      "contractName": null,
      "contractAddress": "0x5fcbb6193b5dd9771f78e36b6811f3a05fbc684b",
      "function": "approve(address,uint256)",
      "arguments": [
        "0xeE567Fe1712Faf6149d80dA1E6934E354124CfE3",
        "100000000000000000000000"
      ],
      "transaction": {
        "from": "0x599cbb31cd468df8022502e69710b01ccf53efa4",
        "to": "0x5fcbb6193b5dd9771f78e36b6811f3a05fbc684b",
        "gas": "0xfd53",
        "value": "0x0",
        "input": "0x095ea7b3000000000000000000000000ee567fe1712faf6149d80da1e6934e354124cfe300000000000000000000000000000000000000000000152d02c7e14af6800000",
        "nonce": "0x11",
        "chainId": "0xaa36a7"
      },
      "additionalContracts": [],
      "isFixedGasLimit": false
    },
    {
      "hash": "0x9874c6bfd0c47dabe12668f8b4b0876f90e16f6784fb2766530256f3f3182517",
      "transactionType": "CALL",
      "contractName": null,
      "contractAddress": "0xee567fe1712faf6149d80da1e6934e354124cfe3",
      "function": "addLiquidity(address,address,uint256,uint256,uint256,uint256,address,uint256)",
      "arguments": [
        "0x02b3d7aAd00aEFDB8f3fe1d5E3fdB7ed78CC41A3",
        "0x5fCBb6193b5dD9771f78e36b6811f3A05FBc684B",
        "10000000000000000000000000",
        "100000000000000000000000",
        "0",
        "0",
        "0x599Cbb31cD468Df8022502e69710b01cCf53EfA4",
        "1774105380"
      ],
      "transaction": {
        "from": "0x599cbb31cd468df8022502e69710b01ccf53efa4",
        "to": "0xee567fe1712faf6149d80da1e6934e354124cfe3",
        "gas": "0x4d17a",
        "value": "0x0",
        "input": "0xe8e3370000000000000000000000000002b3d7aad00aefdb8f3fe1d5e3fdb7ed78cc41a30000000000000000000000005fcbb6193b5dd9771f78e36b6811f3a05fbc684b000000000000000000000000000000000000000000084595161401484a00000000000000000000000000000000000000000000000000152d02c7e14af680000000000000000000000000000000000000000000000000000000000000000000000000000000000000000000000000000000000000000000000000000000000000000000000000000000000000599cbb31cd468df8022502e69710b01ccf53efa40000000000000000000000000000000000000000000000000000000069beb324",
        "nonce": "0x12",
        "chainId": "0xaa36a7"
      },
      "additionalContracts": [],
      "isFixedGasLimit": false
    },
    {
      "hash": "0x31719cce15ee75da2354fb88ab5b1dd06ae7c55bb88f413da02e1e2c35061ceb",
      "transactionType": "CALL",
      "contractName": null,
      "contractAddress": "0xf51bf756cbd199bc7c65f54cfab9ebdf5bafc9b0",
      "function": "transfer(address,uint256)",
      "arguments": [
        "0x000000000000000000000000000000000000dEaD",
        "999999999999999999999000"
      ],
      "transaction": {
        "from": "0x599cbb31cd468df8022502e69710b01ccf53efa4",
        "to": "0xf51bf756cbd199bc7c65f54cfab9ebdf5bafc9b0",
        "gas": "0xfae9",
        "value": "0x0",
        "input": "0xa9059cbb000000000000000000000000000000000000000000000000000000000000dead00000000000000000000000000000000000000000000d3c21bcecceda0fffc18",
        "nonce": "0x13",
        "chainId": "0xaa36a7"
      },
      "additionalContracts": [],
      "isFixedGasLimit": false
    }
  ],
  "receipts": [
    {
      "status": "0x1",
      "cumulativeGasUsed": "0x1d5a4a5",
      "logs": [
        {
          "address": "0x02b3d7aad00aefdb8f3fe1d5e3fdb7ed78cc41a3",
          "topics": [
            "0x8c5be1e5ebec7d5bd14f71427d1e84f3dd0314c0f7b2291e5b200ac8c7c3b925",
            "0x000000000000000000000000599cbb31cd468df8022502e69710b01ccf53efa4",
            "0x000000000000000000000000ee567fe1712faf6149d80da1e6934e354124cfe3"
          ],
          "data": "0x000000000000000000000000000000000000000000084595161401484a000000",
          "blockHash": "0x89daf76e9ed7a176408f00593e2a3266e6fa37f1d73fd0029d7b85e483182232",
          "blockNumber": "0xa0156d",
          "blockTimestamp": "0x69bea544",
          "transactionHash": "0x2807158395bc0045d33cf3122890c166b7620498493d8194f32496462c3d93d2",
          "transactionIndex": "0x82",
          "logIndex": "0x2e8",
          "removed": false
        }
      ],
      "logsBloom": "0x00000000000000000000000000000000000000000000000000000000000000000000000000000000000000000000000000000000000000000000000008200000000000800000000000000000000000000000000000000000000000000001000000000000000000000000000000000000008000000000000000000000000000000000002000000000008000000000000000000000000000000000000000000000020000000000000000000000000000000000000000000000000000800000000000000000000000000000000000000000000000000000000000000000000000000010000000000000000000000000000000000000000000040080000000000000",
      "type": "0x2",
      "transactionHash": "0x2807158395bc0045d33cf3122890c166b7620498493d8194f32496462c3d93d2",
      "transactionIndex": "0x82",
      "blockHash": "0x89daf76e9ed7a176408f00593e2a3266e6fa37f1d73fd0029d7b85e483182232",
      "blockNumber": "0xa0156d",
      "gasUsed": "0xb768",
      "effectiveGasPrice": "0xf425f",
      "from": "0x599cbb31cd468df8022502e69710b01ccf53efa4",
      "to": "0x02b3d7aad00aefdb8f3fe1d5e3fdb7ed78cc41a3",
      "contractAddress": null
    },
    {
      "status": "0x1",
      "cumulativeGasUsed": "0x1d65c0d",
      "logs": [
        {
          "address": "0x5fcbb6193b5dd9771f78e36b6811f3a05fbc684b",
          "topics": [
            "0x8c5be1e5ebec7d5bd14f71427d1e84f3dd0314c0f7b2291e5b200ac8c7c3b925",
            "0x000000000000000000000000599cbb31cd468df8022502e69710b01ccf53efa4",
            "0x000000000000000000000000ee567fe1712faf6149d80da1e6934e354124cfe3"
          ],
          "data": "0x00000000000000000000000000000000000000000000152d02c7e14af6800000",
          "blockHash": "0x89daf76e9ed7a176408f00593e2a3266e6fa37f1d73fd0029d7b85e483182232",
          "blockNumber": "0xa0156d",
          "blockTimestamp": "0x69bea544",
          "transactionHash": "0x31719cce15ee75da2354fb88ab5b1dd06ae7c55bb88f413da02e1e2c35061ceb",
          "transactionIndex": "0x83",
          "logIndex": "0x2e9",
          "removed": false
        }
      ],
      "logsBloom": "0x00000000000000000000000000000000000000000000000000000000000000000000000010000000000000000000000000000000000000000000000008200000000000800000000000000000000000000000000004000000000000000001000000000000000000000000000000000000000000000000000000000000000000000000002000000000000000000000000000000000000000000000000000000000020000000000000000000000000000000000000000000000000000800000000000000000000000000000000000000000000000000000000000000000000000000010000004000000000000000000000000000000000000000080000000000000",
      "type": "0x2",
      "transactionHash": "0x31719cce15ee75da2354fb88ab5b1dd06ae7c55bb88f413da02e1e2c35061ceb",
      "transactionIndex": "0x83",
      "blockHash": "0x89daf76e9ed7a176408f00593e2a3266e6fa37f1d73fd0029d7b85e483182232",
      "blockNumber": "0xa0156d",
      "gasUsed": "0xb768",
      "effectiveGasPrice": "0xf425f",
      "from": "0x599cbb31cd468df8022502e69710b01ccf53efa4",
      "to": "0x5fcbb6193b5dd9771f78e36b6811f3a05fbc684b",
      "contractAddress": null
    },
    {
      "status": "0x1",
      "cumulativeGasUsed": "0x1d9d911",
      "logs": [
        {
          "address": "0x02b3d7aad00aefdb8f3fe1d5e3fdb7ed78cc41a3",
          "topics": [
            "0xddf252ad1be2c89b69c2b068fc378daa952ba7f163c4a11628f55a4df523b3ef",
            "0x000000000000000000000000599cbb31cd468df8022502e69710b01ccf53efa4",
            "0x000000000000000000000000f51bf756cbd199bc7c65f54cfab9ebdf5bafc9b0"
          ],
          "data": "0x000000000000000000000000000000000000000000084595161401484a000000",
          "blockHash": "0x89daf76e9ed7a176408f00593e2a3266e6fa37f1d73fd0029d7b85e483182232",
          "blockNumber": "0xa0156d",
          "blockTimestamp": "0x69bea544",
          "transactionHash": "0x9874c6bfd0c47dabe12668f8b4b0876f90e16f6784fb2766530256f3f3182517",
          "transactionIndex": "0x84",
          "logIndex": "0x2ea",
          "removed": false
        },
        {
          "address": "0x5fcbb6193b5dd9771f78e36b6811f3a05fbc684b",
          "topics": [
            "0xddf252ad1be2c89b69c2b068fc378daa952ba7f163c4a11628f55a4df523b3ef",
            "0x000000000000000000000000599cbb31cd468df8022502e69710b01ccf53efa4",
            "0x000000000000000000000000f51bf756cbd199bc7c65f54cfab9ebdf5bafc9b0"
          ],
          "data": "0x00000000000000000000000000000000000000000000152d02c7e14af6800000",
          "blockHash": "0x89daf76e9ed7a176408f00593e2a3266e6fa37f1d73fd0029d7b85e483182232",
          "blockNumber": "0xa0156d",
          "blockTimestamp": "0x69bea544",
          "transactionHash": "0x9874c6bfd0c47dabe12668f8b4b0876f90e16f6784fb2766530256f3f3182517",
          "transactionIndex": "0x84",
          "logIndex": "0x2eb",
          "removed": false
        },
        {
          "address": "0xf51bf756cbd199bc7c65f54cfab9ebdf5bafc9b0",
          "topics": [
            "0xddf252ad1be2c89b69c2b068fc378daa952ba7f163c4a11628f55a4df523b3ef",
            "0x0000000000000000000000000000000000000000000000000000000000000000",
            "0x0000000000000000000000000000000000000000000000000000000000000000"
          ],
          "data": "0x00000000000000000000000000000000000000000000000000000000000003e8",
          "blockHash": "0x89daf76e9ed7a176408f00593e2a3266e6fa37f1d73fd0029d7b85e483182232",
          "blockNumber": "0xa0156d",
          "blockTimestamp": "0x69bea544",
          "transactionHash": "0x9874c6bfd0c47dabe12668f8b4b0876f90e16f6784fb2766530256f3f3182517",
          "transactionIndex": "0x84",
          "logIndex": "0x2ec",
          "removed": false
        },
        {
          "address": "0xf51bf756cbd199bc7c65f54cfab9ebdf5bafc9b0",
          "topics": [
            "0xddf252ad1be2c89b69c2b068fc378daa952ba7f163c4a11628f55a4df523b3ef",
            "0x0000000000000000000000000000000000000000000000000000000000000000",
            "0x000000000000000000000000599cbb31cd468df8022502e69710b01ccf53efa4"
          ],
          "data": "0x00000000000000000000000000000000000000000000d3c21bcecceda0fffc18",
          "blockHash": "0x89daf76e9ed7a176408f00593e2a3266e6fa37f1d73fd0029d7b85e483182232",
          "blockNumber": "0xa0156d",
          "blockTimestamp": "0x69bea544",
          "transactionHash": "0x9874c6bfd0c47dabe12668f8b4b0876f90e16f6784fb2766530256f3f3182517",
          "transactionIndex": "0x84",
          "logIndex": "0x2ed",
          "removed": false
        },
        {
          "address": "0xf51bf756cbd199bc7c65f54cfab9ebdf5bafc9b0",
          "topics": [
            "0x1c411e9a96e071241c2f21f7726b17ae89e3cab4c78be50e062b03a9fffbbad1"
          ],
          "data": "0x000000000000000000000000000000000000000000084595161401484a00000000000000000000000000000000000000000000000000152d02c7e14af6800000",
          "blockHash": "0x89daf76e9ed7a176408f00593e2a3266e6fa37f1d73fd0029d7b85e483182232",
          "blockNumber": "0xa0156d",
          "blockTimestamp": "0x69bea544",
          "transactionHash": "0x9874c6bfd0c47dabe12668f8b4b0876f90e16f6784fb2766530256f3f3182517",
          "transactionIndex": "0x84",
          "logIndex": "0x2ee",
          "removed": false
        },
        {
          "address": "0xf51bf756cbd199bc7c65f54cfab9ebdf5bafc9b0",
          "topics": [
            "0x4c209b5fc8ad50758f13e2e1088ba56a560dff690a1c6fef26394f4c03821c4f",
            "0x000000000000000000000000ee567fe1712faf6149d80da1e6934e354124cfe3"
          ],
          "data": "0x000000000000000000000000000000000000000000084595161401484a00000000000000000000000000000000000000000000000000152d02c7e14af6800000",
          "blockHash": "0x89daf76e9ed7a176408f00593e2a3266e6fa37f1d73fd0029d7b85e483182232",
          "blockNumber": "0xa0156d",
          "blockTimestamp": "0x69bea544",
          "transactionHash": "0x9874c6bfd0c47dabe12668f8b4b0876f90e16f6784fb2766530256f3f3182517",
          "transactionIndex": "0x84",
          "logIndex": "0x2ef",
          "removed": false
        }
      ],
      "logsBloom": "0x00000000000000000000000080000000000000000000000020000000000001000000000010000020000000000000000000000000000000000000000008000000000000800000000000000008000000000000000004000000000000020001000000000000020000000000000000000800008000000008000000000010000000000000002000000000008000000000020000000000000000080000000000000000000000000000000000000000000000000000000000000000000000800000000000000002000000000000000000020000000000000000001000000000000020000000000004000002000000000000000000000000000000040080000000000800",
      "type": "0x2",
      "transactionHash": "0x9874c6bfd0c47dabe12668f8b4b0876f90e16f6784fb2766530256f3f3182517",
      "transactionIndex": "0x84",
      "blockHash": "0x89daf76e9ed7a176408f00593e2a3266e6fa37f1d73fd0029d7b85e483182232",
      "blockNumber": "0xa0156d",
      "gasUsed": "0x37d04",
      "effectiveGasPrice": "0xf425f",
      "from": "0x599cbb31cd468df8022502e69710b01ccf53efa4",
      "to": "0xee567fe1712faf6149d80da1e6934e354124cfe3",
      "contractAddress": null
    },
    {
      "status": "0x1",
      "cumulativeGasUsed": "0x1da8eb9",
      "logs": [
        {
          "address": "0xf51bf756cbd199bc7c65f54cfab9ebdf5bafc9b0",
          "topics": [
            "0xddf252ad1be2c89b69c2b068fc378daa952ba7f163c4a11628f55a4df523b3ef",
            "0x000000000000000000000000599cbb31cd468df8022502e69710b01ccf53efa4",
            "0x000000000000000000000000000000000000000000000000000000000000dead"
          ],
          "data": "0x00000000000000000000000000000000000000000000d3c21bcecceda0fffc18",
          "blockHash": "0x89daf76e9ed7a176408f00593e2a3266e6fa37f1d73fd0029d7b85e483182232",
          "blockNumber": "0xa0156d",
          "blockTimestamp": "0x69bea544",
          "transactionHash": "0x8cc5d4f04b460e455e30576763507b217429b48cc792603da05992d1b60c7a44",
          "transactionIndex": "0x85",
          "logIndex": "0x2f0",
          "removed": false
        }
      ],
      "logsBloom": "0x00000000000010000000000000000000000000000000000000000000000000000000000000000000000000000000000000000000000000000000000000000000000000800000000000000008000000000000000000000000000000020001000000000000000000000000000000000000000000000000000000000010000000000000002000000000000004000000020000000000000000000000000000000000000000000000000000000000000000000000000000000000000000000000000000000402000000000000000000000000000000000000000000000000000000000000000000000000000000000000000000000000000000000000000000000800",
      "type": "0x2",
      "transactionHash": "0x8cc5d4f04b460e455e30576763507b217429b48cc792603da05992d1b60c7a44",
      "transactionIndex": "0x85",
      "blockHash": "0x89daf76e9ed7a176408f00593e2a3266e6fa37f1d73fd0029d7b85e483182232",
      "blockNumber": "0xa0156d",
      "gasUsed": "0xb5a8",
      "effectiveGasPrice": "0xf425f",
      "from": "0x599cbb31cd468df8022502e69710b01ccf53efa4",
      "to": "0xf51bf756cbd199bc7c65f54cfab9ebdf5bafc9b0",
      "contractAddress": null
    }
  ],
  "libraries": [],
  "pending": [],
  "returns": {},
  "timestamp": 1774101829769,
  "chain": 11155111,
  "commit": null
}