{
  "transactions": [
    {
      "hash": "0x0f46371ec368b76fe63dcc95f7c4d9aa5024dbfd35dcb0c42f8bcbaeafa23e88",
      "transactionType": "CALL",
      "contractName": null,
      "contractAddress": "0x02b3d7aad00aefdb8f3fe1d5e3fdb7ed78cc41a3",
      "function": "approve(address,uint256)",
      "arguments": [
        "0x000000000022D473030F116dDEE9F6B43aC78BA3",
        "115792089237316195423570985008687907853269984665640564039457584007913129639935"
      ],
      "transaction": {
        "from": "0x599cbb31cd468df8022502e69710b01ccf53efa4",
        "to": "0x02b3d7aad00aefdb8f3fe1d5e3fdb7ed78cc41a3",
        "gas": "0x9330",
        "value": "0x0",
        "input": "0x095ea7b3000000000000000000000000000000000022d473030f116ddee9f6b43ac78ba3ffffffffffffffffffffffffffffffffffffffffffffffffffffffffffffffff",
        "nonce": "0x4b",
        "chainId": "0xaa36a7"
      },
      "additionalContracts": [],
      "isFixedGasLimit": false
    },
    {
      "hash": "0xf97f14ee6277d88f2e14df254801273df6b5a8c42783e5d5edb052ef2196eb67",
      "transactionType": "CALL",
      "contractName": null,
      "contractAddress": "0x000000000022d473030f116ddee9f6b43ac78ba3",
      "function": "approve(address,address,uint160,uint48)",
      "arguments": [
        "0x02b3d7aAd00aEFDB8f3fe1d5E3fdB7ed78CC41A3",
        "0x429ba70129df741B2Ca2a85BC3A2a3328e5c09b4",
        "1461501637330902918203684832716283019655932542975",
        "281474976710655"
      ],
      "transaction": {
        "from": "0x599cbb31cd468df8022502e69710b01ccf53efa4",
        "to": "0x000000000022d473030f116ddee9f6b43ac78ba3",
        "gas": "0x96a0",
        "value": "0x0",
        "input": "0x87517c4500000000000000000000000002b3d7aad00aefdb8f3fe1d5e3fdb7ed78cc41a3000000000000000000000000429ba70129df741b2ca2a85bc3a2a3328e5c09b4000000000000000000000000ffffffffffffffffffffffffffffffffffffffff0000000000000000000000000000000000000000000000000000ffffffffffff",
        "nonce": "0x4c",
        "chainId": "0xaa36a7"
      },
      "additionalContracts": [],
      "isFixedGasLimit": false
    },
    {
      "hash": "0x59aa6385f1457966df9adffd31dfe297746153788d2d92d11a15e9d2eb99ccfe",
      "transactionType": "CALL",
      "contractName": null,
      "contractAddress": "0x7cc9c9f858ae836361a408b66d1198652fcb07b4",
      "function": "approve(address,uint256)",
      "arguments": [
        "0x000000000022D473030F116dDEE9F6B43aC78BA3",
        "115792089237316195423570985008687907853269984665640564039457584007913129639935"
      ],
      "transaction": {
        "from": "0x599cbb31cd468df8022502e69710b01ccf53efa4",
        "to": "0x7cc9c9f858ae836361a408b66d1198652fcb07b4",
        "gas": "0x9330",
        "value": "0x0",
        "input": "0x095ea7b3000000000000000000000000000000000022d473030f116ddee9f6b43ac78ba3ffffffffffffffffffffffffffffffffffffffffffffffffffffffffffffffff",
        "nonce": "0x4d",
        "chainId": "0xaa36a7"
      },
      "additionalContracts": [],
      "isFixedGasLimit": false
    },
    {
      "hash": "0x4deeafeeba7968381dfa695966d739886827f0bf0cf98ffdcbc89354f82506b9",
      "transactionType": "CALL",
      "contractName": null,
      "contractAddress": "0x000000000022d473030f116ddee9f6b43ac78ba3",
      "function": "approve(address,address,uint160,uint48)",
      "arguments": [
        "0x7Cc9c9F858Ae836361a408B66d1198652fCb07B4",
        "0x429ba70129df741B2Ca2a85BC3A2a3328e5c09b4",
        "1461501637330902918203684832716283019655932542975",
        "281474976710655"
      ],
      "transaction": {
        "from": "0x599cbb31cd468df8022502e69710b01ccf53efa4",
        "to": "0x000000000022d473030f116ddee9f6b43ac78ba3",
        "gas": "0x96a0",
        "value": "0x0",
        "input": "0x87517c450000000000000000000000007cc9c9f858ae836361a408b66d1198652fcb07b4000000000000000000000000429ba70129df741b2ca2a85bc3a2a3328e5c09b4000000000000000000000000ffffffffffffffffffffffffffffffffffffffff0000000000000000000000000000000000000000000000000000ffffffffffff",
        "nonce": "0x4e",
        "chainId": "0xaa36a7"
      },
      "additionalContracts": [],
      "isFixedGasLimit": false
    },
    {
      "hash": "0xad2a0bb8245d68a5b6b2f9cd5176f2e2ef4e4f2c834171d0f6986565c7b005ea",
      "transactionType": "CALL",
      "contractName": null,
      "contractAddress": "0x429ba70129df741b2ca2a85bc3a2a3328e5c09b4",
      "function": "multicall(bytes[])",
      "arguments": [
        "[0xf702040500000000000000000000000002b3d7aad00aefdb8f3fe1d5e3fdb7ed78cc41a30000000000000000000000007cc9c9f858ae836361a408b66d1198652fcb07b40000000000000000000000000000000000000000000000000000000000000bb8000000000000000000000000000000000000000000000000000000000000001e0000000000000000000000000000000000000000000000000000000000000000000000000000000000000000000000000000002da69e079b4228c05c4e0b0c4600000000000000000000000000000000000000000000000000000000000000e00000000000000000000000000000000000000000000000000000000000000000, 0xdd46508f00000000000000000000000000000000000000000000000000000000000000400000000000000000000000000000000000000000000000000000000069bfa84c0000000000000000000000000000000000000000000000000000000000000400000000000000000000000000000000000000000000000000000000000000004000000000000000000000000000000000000000000000000000000000000000800000000000000000000000000000000000000000000000000000000000000004020d14140000000000000000000000000000000000000000000000000000000000000000000000000000000000000000000000000000000000000000000000040000000000000000000000000000000000000000000000000000000000000080000000000000000000000000000000000000000000000000000000000000024000000000000000000000000000000000000000000000000000000000000002a0000000000000000000000000000000000000000000000000000000000000030000000000000000000000000000000000000000000000000000000000000001a000000000000000000000000002b3d7aad00aefdb8f3fe1d5e3fdb7ed78cc41a30000000000000000000000007cc9c9f858ae836361a408b66d1198652fcb07b40000000000000000000000000000000000000000000000000000000000000bb8000000000000000000000000000000000000000000000000000000000000001e0000000000000000000000000000000000000000000000000000000000000000ffffffffffffffffffffffffffffffffffffffffffffffffffffffffffffcb080000000000000000000000000000000000000000000000000000000000028a0a00000000000000000000000000000000000000000000000c022b8d6dab496ac700000000000000000000000000000000000000000010f0cf064dd5920000000100000000000000000000000000000000000000000000021e19e0c9bab2400001000000000000000000000000599cbb31cd468df8022502e69710b01ccf53efa400000000000000000000000000000000000000000000000000000000000001800000000000000000000000000000000000000000000000000000000000000000000000000000000000000000000000000000000000000000000000000000004000000000000000000000000002b3d7aad00aefdb8f3fe1d5e3fdb7ed78cc41a30000000000000000000000007cc9c9f858ae836361a408b66d1198652fcb07b4000000000000000000000000000000000000000000000000000000000000004000000000000000000000000002b3d7aad00aefdb8f3fe1d5e3fdb7ed78cc41a3000000000000000000000000599cbb31cd468df8022502e69710b01ccf53efa400000000000000000000000000000000000000000000000000000000000000400000000000000000000000007cc9c9f858ae836361a408b66d1198652fcb07b4000000000000000000000000599cbb31cd468df8022502e69710b01ccf53efa4]"
      ],
      "transaction": {
        "from": "0x599cbb31cd468df8022502e69710b01ccf53efa4",
        "to": "0x429ba70129df741b2ca2a85bc3a2a3328e5c09b4",
        "gas": "0x8d620",
        "value": "0x0",
        "input": "0xac9650d800000000000000000000000000000000000000000000000000000000000000200000000000000000000000000000000000000000000000000000000000000002000000000000000000000000000000000000000000000000000000000000004000000000000000000000000000000000000000000000000000000000000001800000000000000000000000000000000000000000000000000000000000000104f702040500000000000000000000000002b3d7aad00aefdb8f3fe1d5e3fdb7ed78cc41a30000000000000000000000007cc9c9f858ae836361a408b66d1198652fcb07b40000000000000000000000000000000000000000000000000000000000000bb8000000000000000000000000000000000000000000000000000000000000001e0000000000000000000000000000000000000000000000000000000000000000000000000000000000000000000000000000002da69e079b4228c05c4e0b0c4600000000000000000000000000000000000000000000000000000000000000e00000000000000000000000000000000000000000000000000000000000000000000000000000000000000000000000000000000000000000000000000000000000000000000000000000000000000000000000000000000000000464dd46508f00000000000000000000000000000000000000000000000000000000000000400000000000000000000000000000000000000000000000000000000069bfa84c0000000000000000000000000000000000000000000000000000000000000400000000000000000000000000000000000000000000000000000000000000004000000000000000000000000000000000000000000000000000000000000000800000000000000000000000000000000000000000000000000000000000000004020d14140000000000000000000000000000000000000000000000000000000000000000000000000000000000000000000000000000000000000000000000040000000000000000000000000000000000000000000000000000000000000080000000000000000000000000000000000000000000000000000000000000024000000000000000000000000000000000000000000000000000000000000002a0000000000000000000000000000000000000000000000000000000000000030000000000000000000000000000000000000000000000000000000000000001a000000000000000000000000002b3d7aad00aefdb8f3fe1d5e3fdb7ed78cc41a30000000000000000000000007cc9c9f858ae836361a408b66d1198652fcb07b40000000000000000000000000000000000000000000000000000000000000bb8000000000000000000000000000000000000000000000000000000000000001e0000000000000000000000000000000000000000000000000000000000000000ffffffffffffffffffffffffffffffffffffffffffffffffffffffffffffcb080000000000000000000000000000000000000000000000000000000000028a0a00000000000000000000000000000000000000000000000c022b8d6dab496ac700000000000000000000000000000000000000000010f0cf064dd5920000000100000000000000000000000000000000000000000000021e19e0c9bab2400001000000000000000000000000599cbb31cd468df8022502e69710b01ccf53efa400000000000000000000000000000000000000000000000000000000000001800000000000000000000000000000000000000000000000000000000000000000000000000000000000000000000000000000000000000000000000000000004000000000000000000000000002b3d7aad00aefdb8f3fe1d5e3fdb7ed78cc41a30000000000000000000000007cc9c9f858ae836361a408b66d1198652fcb07b4000000000000000000000000000000000000000000000000000000000000004000000000000000000000000002b3d7aad00aefdb8f3fe1d5e3fdb7ed78cc41a3000000000000000000000000599cbb31cd468df8022502e69710b01ccf53efa400000000000000000000000000000000000000000000000000000000000000400000000000000000000000007cc9c9f858ae836361a408b66d1198652fcb07b4000000000000000000000000599cbb31cd468df8022502e69710b01ccf53efa400000000000000000000000000000000000000000000000000000000",
        "nonce": "0x4f",
        "chainId": "0xaa36a7"
      },
      "additionalContracts": [],
      "isFixedGasLimit": false
    }
  ],
  "receipts": [
    {
      "status": "0x1",
      "cumulativeGasUsed": "0xd1402d",
      "logs": [
        {
          "address": "0x02b3d7aad00aefdb8f3fe1d5e3fdb7ed78cc41a3",
          "topics": [
            "0x8c5be1e5ebec7d5bd14f71427d1e84f3dd0314c0f7b2291e5b200ac8c7c3b925",
            "0x000000000000000000000000599cbb31cd468df8022502e69710b01ccf53efa4",
            "0x000000000000000000000000000000000022d473030f116ddee9f6b43ac78ba3"
          ],
          "data": "0xffffffffffffffffffffffffffffffffffffffffffffffffffffffffffffffff",
          "blockHash": "0x528526b220e4abfa2c1c7457a63ea154f6177fc11fa9ce55ab844ecdaeed8eb7",
          "blockNumber": "0xa0293c",
          "blockTimestamp": "0x69bf9a90",
          "transactionHash": "0x0f46371ec368b76fe63dcc95f7c4d9aa5024dbfd35dcb0c42f8bcbaeafa23e88",
          "transactionIndex": "0x5f",
          "logIndex": "0x25f",
          "removed": false
        }
      ],
      "logsBloom": "0x00000000000000000000000000000000000000000000000000000000000000000000000000000000000000000000000000000000800000000000000000200000000000800000000000004000000000000000000000000800000000000001000000000000000000000000000000000000008000000000000000000000000000000000002000000000008000000000000000000000000000000000000000000000020000000000000000000000000000000000000000000000000000000000000000000000000000000000000000000000000000000000000000000000000000000010000000000000000000000000000000000000000000040000000000000000",
      "type": "0x2",
      "transactionHash": "0x0f46371ec368b76fe63dcc95f7c4d9aa5024dbfd35dcb0c42f8bcbaeafa23e88",
      "transactionIndex": "0x5f",
      "blockHash": "0x528526b220e4abfa2c1c7457a63ea154f6177fc11fa9ce55ab844ecdaeed8eb7",
      "blockNumber": "0xa0293c",
      "gasUsed": "0x6a90",
      "effectiveGasPrice": "0xf4291",
      "from": "0x599cbb31cd468df8022502e69710b01ccf53efa4",
      "to": "0x02b3d7aad00aefdb8f3fe1d5e3fdb7ed78cc41a3",
      "contractAddress": null
    },
    {
      "status": "0x1",
      "cumulativeGasUsed": "0xd1ad3b",
      "logs": [
        {
          "address": "0x000000000022d473030f116ddee9f6b43ac78ba3",
          "topics": [
            "0xda9fa7c1b00402c17d0161b249b1ab8bbec047c5a52207b9c112deffd817036b",
            "0x000000000000000000000000599cbb31cd468df8022502e69710b01ccf53efa4",
            "0x00000000000000000000000002b3d7aad00aefdb8f3fe1d5e3fdb7ed78cc41a3",
            "0x000000000000000000000000429ba70129df741b2ca2a85bc3a2a3328e5c09b4"
          ],
          "data": "0x000000000000000000000000ffffffffffffffffffffffffffffffffffffffff0000000000000000000000000000000000000000000000000000ffffffffffff",
          "blockHash": "0x528526b220e4abfa2c1c7457a63ea154f6177fc11fa9ce55ab844ecdaeed8eb7",
          "blockNumber": "0xa0293c",
          "blockTimestamp": "0x69bf9a90",
          "transactionHash": "0x4deeafeeba7968381dfa695966d739886827f0bf0cf98ffdcbc89354f82506b9",
          "transactionIndex": "0x60",
          "logIndex": "0x260",
          "removed": false
        }
      ],
      "logsBloom": "0x00010000000000000000000000000000000000000000000000000000000000000000000000000040080000000000000000000000000000000000000000080000000000800000000000000000000000000000000000000000000000000001000000000000000000000000000000000000000000000000000000000800000000000020002000000000000000000000000000000000001000000001000000000000000000000000000000000000000000000000000000000000000000080000000000000000000000000000000000000000000000000000000040000000000000000000000000000040000000000000000000000000000000000000000000000400",
      "type": "0x2",
      "transactionHash": "0x4deeafeeba7968381dfa695966d739886827f0bf0cf98ffdcbc89354f82506b9",
      "transactionIndex": "0x60",
      "blockHash": "0x528526b220e4abfa2c1c7457a63ea154f6177fc11fa9ce55ab844ecdaeed8eb7",
      "blockNumber": "0xa0293c",
      "gasUsed": "0x6d0e",
      "effectiveGasPrice": "0xf4291",
      "from": "0x599cbb31cd468df8022502e69710b01ccf53efa4",
      "to": "0x000000000022d473030f116ddee9f6b43ac78ba3",
      "contractAddress": null
    },
    {
      "status": "0x1",
      "cumulativeGasUsed": "0xd217cb",
      "logs": [
        {
          "address": "0x7cc9c9f858ae836361a408b66d1198652fcb07b4",
          "topics": [
            "0x8c5be1e5ebec7d5bd14f71427d1e84f3dd0314c0f7b2291e5b200ac8c7c3b925",
            "0x000000000000000000000000599cbb31cd468df8022502e69710b01ccf53efa4",
            "0x000000000000000000000000000000000022d473030f116ddee9f6b43ac78ba3"
          ],
          "data": "0xffffffffffffffffffffffffffffffffffffffffffffffffffffffffffffffff",
          "blockHash": "0x528526b220e4abfa2c1c7457a63ea154f6177fc11fa9ce55ab844ecdaeed8eb7",
          "blockNumber": "0xa0293c",
          "blockTimestamp": "0x69bf9a90",
          "transactionHash": "0xf97f14ee6277d88f2e14df254801273df6b5a8c42783e5d5edb052ef2196eb67",
          "transactionIndex": "0x61",
          "logIndex": "0x261",
          "removed": false
        }
      ],
      "logsBloom": "0x00000000000000000000000000000000000000000000000000000000000000000000000000000000000000000000000000000000840000000000000000200000000000800000040000004000000000000000000000000800000000000001000000000000000000000000000000000000000000000000000000000000000000000000002000000000000000000000000000000000000000000000000000000004020000000000000000000000000000000000000000000000000000000000000000000000000000000000000000000000000000000000000000000000000000000010000000000000000000000000000000000000000000000000000000000000",
      "type": "0x2",
      "transactionHash": "0xf97f14ee6277d88f2e14df254801273df6b5a8c42783e5d5edb052ef2196eb67",
      "transactionIndex": "0x61",
      "blockHash": "0x528526b220e4abfa2c1c7457a63ea154f6177fc11fa9ce55ab844ecdaeed8eb7",
      "blockNumber": "0xa0293c",
      "gasUsed": "0x6a90",
      "effectiveGasPrice": "0xf4291",
      "from": "0x599cbb31cd468df8022502e69710b01ccf53efa4",
      "to": "0x7cc9c9f858ae836361a408b66d1198652fcb07b4",
      "contractAddress": null
    },
    {
      "status": "0x1",
      "cumulativeGasUsed": "0xd284d9",
      "logs": [
        {
          "address": "0x000000000022d473030f116ddee9f6b43ac78ba3",
          "topics": [
            "0xda9fa7c1b00402c17d0161b249b1ab8bbec047c5a52207b9c112deffd817036b",
            "0x000000000000000000000000599cbb31cd468df8022502e69710b01ccf53efa4",
            "0x0000000000000000000000007cc9c9f858ae836361a408b66d1198652fcb07b4",
            "0x000000000000000000000000429ba70129df741b2ca2a85bc3a2a3328e5c09b4"
          ],
          "data": "0x000000000000000000000000ffffffffffffffffffffffffffffffffffffffff0000000000000000000000000000000000000000000000000000ffffffffffff",
          "blockHash": "0x528526b220e4abfa2c1c7457a63ea154f6177fc11fa9ce55ab844ecdaeed8eb7",
          "blockNumber": "0xa0293c",
          "blockTimestamp": "0x69bf9a90",
          "transactionHash": "0x59aa6385f1457966df9adffd31dfe297746153788d2d92d11a15e9d2eb99ccfe",
          "transactionIndex": "0x62",
          "logIndex": "0x262",
          "removed": false
        }
      ],
      "logsBloom": "0x00010000000000000000002000000000000000000000000000000200000000000000000000000040080000000000000000000000000000000000000000080000000000800000000000000000000000000000000000000000000000000001000000000000000000000000000000000000000000000000000000000800000000000020002000000000000000000000000000000000000008000000000000000000000000000000000000000000000000000000000000000000000000080000000000000000000000000000000000000000000000000000000040000000000000000000000000000000000000000000000000000000000000000000000000000400",
      "type": "0x2",
      "transactionHash": "0x59aa6385f1457966df9adffd31dfe297746153788d2d92d11a15e9d2eb99ccfe",
      "transactionIndex": "0x62",
      "blockHash": "0x528526b220e4abfa2c1c7457a63ea154f6177fc11fa9ce55ab844ecdaeed8eb7",
      "blockNumber": "0xa0293c",
      "gasUsed": "0x6d0e",
      "effectiveGasPrice": "0xf4291",
      "from": "0x599cbb31cd468df8022502e69710b01ccf53efa4",
      "to": "0x000000000022d473030f116ddee9f6b43ac78ba3",
      "contractAddress": null
    },
    {
      "status": "0x1",
      "cumulativeGasUsed": "0xd8ea97",
      "logs": [
        {
          "address": "0xe03a1074c86cfedd5c142c4f04f1a1536e203543",
          "topics": [
            "0xdd466e674ea557f56295e2d0218a125ea4b4f0f6f3307b95f85e6110838d6438",
            "0x4b3f367e32b31c9f05e9f26343f6338f8f93aca60853eda0fbb58f6e4799d1d2",
            "0x00000000000000000000000002b3d7aad00aefdb8f3fe1d5e3fdb7ed78cc41a3",
            "0x0000000000000000000000007cc9c9f858ae836361a408b66d1198652fcb07b4"
          ],
          "data": "0x0000000000000000000000000000000000000000000000000000000000000bb8000000000000000000000000000000000000000000000000000000000000001e0000000000000000000000000000000000000000000000000000000000000000000000000000000000000000000000000000002da69e079b4228c05c4e0b0c460000000000000000000000000000000000000000000000000000000000012a88",
          "blockHash": "0x528526b220e4abfa2c1c7457a63ea154f6177fc11fa9ce55ab844ecdaeed8eb7",
          "blockNumber": "0xa0293c",
          "blockTimestamp": "0x69bf9a90",
          "transactionHash": "0xad2a0bb8245d68a5b6b2f9cd5176f2e2ef4e4f2c834171d0f6986565c7b005ea",
          "transactionIndex": "0x63",
          "logIndex": "0x263",
          "removed": false
        },
        {
          "address": "0x429ba70129df741b2ca2a85bc3a2a3328e5c09b4",
          "topics": [
            "0xddf252ad1be2c89b69c2b068fc378daa952ba7f163c4a11628f55a4df523b3ef",
            "0x0000000000000000000000000000000000000000000000000000000000000000",
            "0x000000000000000000000000599cbb31cd468df8022502e69710b01ccf53efa4",
            "0x00000000000000000000000000000000000000000000000000000000000061a2"
          ],
          "data": "0x",
          "blockHash": "0x528526b220e4abfa2c1c7457a63ea154f6177fc11fa9ce55ab844ecdaeed8eb7",
          "blockNumber": "0xa0293c",
          "blockTimestamp": "0x69bf9a90",
          "transactionHash": "0xad2a0bb8245d68a5b6b2f9cd5176f2e2ef4e4f2c834171d0f6986565c7b005ea",
          "transactionIndex": "0x63",
          "logIndex": "0x264",
          "removed": false
        },
        {
          "address": "0xe03a1074c86cfedd5c142c4f04f1a1536e203543",
          "topics": [
            "0xf208f4912782fd25c7f114ca3723a2d5dd6f3bcc3ac8db5af63baa85f711d5ec",
            "0x4b3f367e32b31c9f05e9f26343f6338f8f93aca60853eda0fbb58f6e4799d1d2",
            "0x000000000000000000000000429ba70129df741b2ca2a85bc3a2a3328e5c09b4"
          ],
          "data": "0xffffffffffffffffffffffffffffffffffffffffffffffffffffffffffffcb080000000000000000000000000000000000000000000000000000000000028a0a00000000000000000000000000000000000000000000000c022b8d6dab496ac700000000000000000000000000000000000000000000000000000000000061a2",
          "blockHash": "0x528526b220e4abfa2c1c7457a63ea154f6177fc11fa9ce55ab844ecdaeed8eb7",
          "blockNumber": "0xa0293c",
          "blockTimestamp": "0x69bf9a90",
          "transactionHash": "0xad2a0bb8245d68a5b6b2f9cd5176f2e2ef4e4f2c834171d0f6986565c7b005ea",
          "transactionIndex": "0x63",
          "logIndex": "0x265",
          "removed": false
        },
        {
          "address": "0x02b3d7aad00aefdb8f3fe1d5e3fdb7ed78cc41a3",
          "topics": [
            "0xddf252ad1be2c89b69c2b068fc378daa952ba7f163c4a11628f55a4df523b3ef",
            "0x000000000000000000000000599cbb31cd468df8022502e69710b01ccf53efa4",
            "0x000000000000000000000000e03a1074c86cfedd5c142c4f04f1a1536e203543"
          ],
          "data": "0x000000000000000000000000000000000000000000000000429795a36ec5ba97",
          "blockHash": "0x528526b220e4abfa2c1c7457a63ea154f6177fc11fa9ce55ab844ecdaeed8eb7",
          "blockNumber": "0xa0293c",
          "blockTimestamp": "0x69bf9a90",
          "transactionHash": "0xad2a0bb8245d68a5b6b2f9cd5176f2e2ef4e4f2c834171d0f6986565c7b005ea",
          "transactionIndex": "0x63",
          "logIndex": "0x266",
          "removed": false
        },
        {
          "address": "0x7cc9c9f858ae836361a408b66d1198652fcb07b4",
          "topics": [
            "0xddf252ad1be2c89b69c2b068fc378daa952ba7f163c4a11628f55a4df523b3ef",
            "0x000000000000000000000000599cbb31cd468df8022502e69710b01ccf53efa4",
            "0x000000000000000000000000e03a1074c86cfedd5c142c4f04f1a1536e203543"
          ],
          "data": "0x00000000000000000000000000000000000000000000021e19e0c9bab23ffffe",
          "blockHash": "0x528526b220e4abfa2c1c7457a63ea154f6177fc11fa9ce55ab844ecdaeed8eb7",
          "blockNumber": "0xa0293c",
          "blockTimestamp": "0x69bf9a90",
          "transactionHash": "0xad2a0bb8245d68a5b6b2f9cd5176f2e2ef4e4f2c834171d0f6986565c7b005ea",
          "transactionIndex": "0x63",
          "logIndex": "0x267",
          "removed": false
        }
      ],
      "logsBloom": "0x00000000000000000000003000000000000000000000000000000200080000000000000000000040080000000000000000000100040000000000000000000000000000800000040000000008000000000000000000000000000000000001000000000000020000000000000080000800008000000000100000000810000000000000002001000008108010000000000000000001001408000001000000200004000004000000000000000000000000000000200000400000000000000000000000000002000000100000000000000000000000000000000000001800000020001000000000000040000000000000000004000000000020040000000000000000",
      "type": "0x2",
      "transactionHash": "0xad2a0bb8245d68a5b6b2f9cd5176f2e2ef4e4f2c834171d0f6986565c7b005ea",
      "transactionIndex": "0x63",
      "blockHash": "0x528526b220e4abfa2c1c7457a63ea154f6177fc11fa9ce55ab844ecdaeed8eb7",
      "blockNumber": "0xa0293c",
      "gasUsed": "0x665be",
      "effectiveGasPrice": "0xf4291",
      "from": "0x599cbb31cd468df8022502e69710b01ccf53efa4",
      "to": "0x429ba70129df741b2ca2a85bc3a2a3328e5c09b4",
      "contractAddress": null
    }
  ],
  "libraries": [],
  "pending": [],
  "returns": {},
  "timestamp": 1774164626034,
  "chain": 11155111,
  "commit": "3947a11"
}