{
  "transactions": [
    {
      "hash": "0x5c3697934672d3e4a164d40ea9806d860f6c277dd226c7eb6c1728be78c230c9",
      "transactionType": "CALL",
      "contractName": null,
      "contractAddress": "0x02b3d7aad00aefdb8f3fe1d5e3fdb7ed78cc41a3",
      "function": "approve(address,uint256)",
      "arguments": [
        "0x000000000022D473030F116dDEE9F6B43aC78BA3",
        "115792089237316195423570985008687907853269984665640564039457584007913129639935"
      ],
      "transaction": {
        "from": "0x599cbb31cd468df8022502e69710b01ccf53efa4",
        "to": "0x02b3d7aad00aefdb8f3fe1d5e3fdb7ed78cc41a3",
        "gas": "0x9330",
        "value": "0x0",
        "input": "0x095ea7b3000000000000000000000000000000000022d473030f116ddee9f6b43ac78ba3ffffffffffffffffffffffffffffffffffffffffffffffffffffffffffffffff",
        "nonce": "0x2d",
        "chainId": "0xaa36a7"
      },
      "additionalContracts": [],
      "isFixedGasLimit": false
    },
    {
      "hash": "0x473b91a6a8cd0e019b05c7d72021f2b34e15d9d3f537e5957911e3db74b857d4",
      "transactionType": "CALL",
      "contractName": null,
      "contractAddress": "0x000000000022d473030f116ddee9f6b43ac78ba3",
      "function": "approve(address,address,uint160,uint48)",
      "arguments": [
        "0x02b3d7aAd00aEFDB8f3fe1d5E3fdB7ed78CC41A3",
        "0x429ba70129df741B2Ca2a85BC3A2a3328e5c09b4",
        "1461501637330902918203684832716283019655932542975",
        "281474976710655"
      ],
      "transaction": {
        "from": "0x599cbb31cd468df8022502e69710b01ccf53efa4",
        "to": "0x000000000022d473030f116ddee9f6b43ac78ba3",
        "gas": "0x96a0",
        "value": "0x0",
        "input": "0x87517c4500000000000000000000000002b3d7aad00aefdb8f3fe1d5e3fdb7ed78cc41a3000000000000000000000000429ba70129df741b2ca2a85bc3a2a3328e5c09b4000000000000000000000000ffffffffffffffffffffffffffffffffffffffff0000000000000000000000000000000000000000000000000000ffffffffffff",
        "nonce": "0x2e",
        "chainId": "0xaa36a7"
      },
      "additionalContracts": [],
      "isFixedGasLimit": false
    },
    {
      "hash": "0x2e80fd2f338bef0cae6b19f75794bee2debf836d1adc65942d2da22ef81e5c1e",
      "transactionType": "CALL",
      "contractName": null,
      "contractAddress": "0x7cc9c9f858ae836361a408b66d1198652fcb07b4",
      "function": "approve(address,uint256)",
      "arguments": [
        "0x000000000022D473030F116dDEE9F6B43aC78BA3",
        "115792089237316195423570985008687907853269984665640564039457584007913129639935"
      ],
      "transaction": {
        "from": "0x599cbb31cd468df8022502e69710b01ccf53efa4",
        "to": "0x7cc9c9f858ae836361a408b66d1198652fcb07b4",
        "gas": "0x9330",
        "value": "0x0",
        "input": "0x095ea7b3000000000000000000000000000000000022d473030f116ddee9f6b43ac78ba3ffffffffffffffffffffffffffffffffffffffffffffffffffffffffffffffff",
        "nonce": "0x2f",
        "chainId": "0xaa36a7"
      },
      "additionalContracts": [],
      "isFixedGasLimit": false
    },
    {
      "hash": "0x8d228b907cc0603c5e6bc950afe4974d83c19950b6883579aae92506d9cfdd9c",
      "transactionType": "CALL",
      "contractName": null,
      "contractAddress": "0x000000000022d473030f116ddee9f6b43ac78ba3",
      "function": "approve(address,address,uint160,uint48)",
      "arguments": [
        "0x7Cc9c9F858Ae836361a408B66d1198652fCb07B4",
        "0x429ba70129df741B2Ca2a85BC3A2a3328e5c09b4",
        "1461501637330902918203684832716283019655932542975",
        "281474976710655"
      ],
      "transaction": {
        "from": "0x599cbb31cd468df8022502e69710b01ccf53efa4",
        "to": "0x000000000022d473030f116ddee9f6b43ac78ba3",
        "gas": "0x96a0",
        "value": "0x0",
        "input": "0x87517c450000000000000000000000007cc9c9f858ae836361a408b66d1198652fcb07b4000000000000000000000000429ba70129df741b2ca2a85bc3a2a3328e5c09b4000000000000000000000000ffffffffffffffffffffffffffffffffffffffff0000000000000000000000000000000000000000000000000000ffffffffffff",
        "nonce": "0x30",
        "chainId": "0xaa36a7"
      },
      "additionalContracts": [],
      "isFixedGasLimit": false
    },
    {
      "hash": "0xc3fdafcadef0edb4a71b6d9d9fb57ed5bafd5c355dff5c644674fc9da55a8cfa",
      "transactionType": "CALL",
      "contractName": null,
      "contractAddress": "0x429ba70129df741b2ca2a85bc3a2a3328e5c09b4",
      "function": "multicall(bytes[])",
      "arguments": [
        "[0xf702040500000000000000000000000002b3d7aad00aefdb8f3fe1d5e3fdb7ed78cc41a30000000000000000000000007cc9c9f858ae836361a408b66d1198652fcb07b40000000000000000000000000000000000000000000000000000000000000bb8000000000000000000000000000000000000000000000000000000000000003c0000000000000000000000000000000000000000000000000000000000000000000000000000000000000000000000121ea5fd5c740f61b1aca600000000000000000000000000000000000000000000000000000000000000000000000000e00000000000000000000000000000000000000000000000000000000000000000, 0xdd46508f00000000000000000000000000000000000000000000000000000000000000400000000000000000000000000000000000000000000000000000000069bf9fdc0000000000000000000000000000000000000000000000000000000000000400000000000000000000000000000000000000000000000000000000000000004000000000000000000000000000000000000000000000000000000000000000800000000000000000000000000000000000000000000000000000000000000004020d14140000000000000000000000000000000000000000000000000000000000000000000000000000000000000000000000000000000000000000000000040000000000000000000000000000000000000000000000000000000000000080000000000000000000000000000000000000000000000000000000000000024000000000000000000000000000000000000000000000000000000000000002a0000000000000000000000000000000000000000000000000000000000000030000000000000000000000000000000000000000000000000000000000000001a000000000000000000000000002b3d7aad00aefdb8f3fe1d5e3fdb7ed78cc41a30000000000000000000000007cc9c9f858ae836361a408b66d1198652fcb07b40000000000000000000000000000000000000000000000000000000000000bb8000000000000000000000000000000000000000000000000000000000000003c0000000000000000000000000000000000000000000000000000000000000000000000000000000000000000000000000000000000000000000000000004e80400000000000000000000000000000000000000000000000000000000000a66440000000000000000000000000000000000000000000000000000012b36da9984000000000000000000000000000000000000000000084595161401484a00000100000000000000000000000000000000000000000000152d02c7e14af6800001000000000000000000000000599cbb31cd468df8022502e69710b01ccf53efa400000000000000000000000000000000000000000000000000000000000001800000000000000000000000000000000000000000000000000000000000000000000000000000000000000000000000000000000000000000000000000000004000000000000000000000000002b3d7aad00aefdb8f3fe1d5e3fdb7ed78cc41a30000000000000000000000007cc9c9f858ae836361a408b66d1198652fcb07b4000000000000000000000000000000000000000000000000000000000000004000000000000000000000000002b3d7aad00aefdb8f3fe1d5e3fdb7ed78cc41a3000000000000000000000000599cbb31cd468df8022502e69710b01ccf53efa400000000000000000000000000000000000000000000000000000000000000400000000000000000000000007cc9c9f858ae836361a408b66d1198652fcb07b4000000000000000000000000599cbb31cd468df8022502e69710b01ccf53efa4]"
      ],
      "transaction": {
        "from": "0x599cbb31cd468df8022502e69710b01ccf53efa4",
        "to": "0x429ba70129df741b2ca2a85bc3a2a3328e5c09b4",
        "gas": "0x4d4af",
        "value": "0x0",
        "input": "0xac9650d800000000000000000000000000000000000000000000000000000000000000200000000000000000000000000000000000000000000000000000000000000002000000000000000000000000000000000000000000000000000000000000004000000000000000000000000000000000000000000000000000000000000001800000000000000000000000000000000000000000000000000000000000000104f702040500000000000000000000000002b3d7aad00aefdb8f3fe1d5e3fdb7ed78cc41a30000000000000000000000007cc9c9f858ae836361a408b66d1198652fcb07b40000000000000000000000000000000000000000000000000000000000000bb8000000000000000000000000000000000000000000000000000000000000003c0000000000000000000000000000000000000000000000000000000000000000000000000000000000000000000000121ea5fd5c740f61b1aca600000000000000000000000000000000000000000000000000000000000000000000000000e00000000000000000000000000000000000000000000000000000000000000000000000000000000000000000000000000000000000000000000000000000000000000000000000000000000000000000000000000000000000000464dd46508f00000000000000000000000000000000000000000000000000000000000000400000000000000000000000000000000000000000000000000000000069bf9fdc0000000000000000000000000000000000000000000000000000000000000400000000000000000000000000000000000000000000000000000000000000004000000000000000000000000000000000000000000000000000000000000000800000000000000000000000000000000000000000000000000000000000000004020d14140000000000000000000000000000000000000000000000000000000000000000000000000000000000000000000000000000000000000000000000040000000000000000000000000000000000000000000000000000000000000080000000000000000000000000000000000000000000000000000000000000024000000000000000000000000000000000000000000000000000000000000002a0000000000000000000000000000000000000000000000000000000000000030000000000000000000000000000000000000000000000000000000000000001a000000000000000000000000002b3d7aad00aefdb8f3fe1d5e3fdb7ed78cc41a30000000000000000000000007cc9c9f858ae836361a408b66d1198652fcb07b40000000000000000000000000000000000000000000000000000000000000bb8000000000000000000000000000000000000000000000000000000000000003c0000000000000000000000000000000000000000000000000000000000000000000000000000000000000000000000000000000000000000000000000004e80400000000000000000000000000000000000000000000000000000000000a66440000000000000000000000000000000000000000000000000000012b36da9984000000000000000000000000000000000000000000084595161401484a00000100000000000000000000000000000000000000000000152d02c7e14af6800001000000000000000000000000599cbb31cd468df8022502e69710b01ccf53efa400000000000000000000000000000000000000000000000000000000000001800000000000000000000000000000000000000000000000000000000000000000000000000000000000000000000000000000000000000000000000000000004000000000000000000000000002b3d7aad00aefdb8f3fe1d5e3fdb7ed78cc41a30000000000000000000000007cc9c9f858ae836361a408b66d1198652fcb07b4000000000000000000000000000000000000000000000000000000000000004000000000000000000000000002b3d7aad00aefdb8f3fe1d5e3fdb7ed78cc41a3000000000000000000000000599cbb31cd468df8022502e69710b01ccf53efa400000000000000000000000000000000000000000000000000000000000000400000000000000000000000007cc9c9f858ae836361a408b66d1198652fcb07b4000000000000000000000000599cbb31cd468df8022502e69710b01ccf53efa400000000000000000000000000000000000000000000000000000000",
        "nonce": "0x31",
        "chainId": "0xaa36a7"
      },
      "additionalContracts": [],
      "isFixedGasLimit": false
    }
  ],
  "receipts": [
    {
      "status": "0x1",
      "cumulativeGasUsed": "0x1fbbddb",
      "logs": [
        {
          "address": "0x02b3d7aad00aefdb8f3fe1d5e3fdb7ed78cc41a3",
          "topics": [
            "0x8c5be1e5ebec7d5bd14f71427d1e84f3dd0314c0f7b2291e5b200ac8c7c3b925",
            "0x000000000000000000000000599cbb31cd468df8022502e69710b01ccf53efa4",
            "0x000000000000000000000000000000000022d473030f116ddee9f6b43ac78ba3"
          ],
          "data": "0xffffffffffffffffffffffffffffffffffffffffffffffffffffffffffffffff",
          "blockHash": "0xfac395b7034ecc89125880afb083c5c9987fbae90f2710d3dd7526bebe7b4c85",
          "blockNumber": "0xa0288d",
          "blockTimestamp": "0x69bf9214",
          "transactionHash": "0x2e80fd2f338bef0cae6b19f75794bee2debf836d1adc65942d2da22ef81e5c1e",
          "transactionIndex": "0x80",
          "logIndex": "0x30d",
          "removed": false
        }
      ],
      "logsBloom": "0x00000000000000000000000000000000000000000000000000000000000000000000000000000000000000000000000000000000800000000000000000200000000000800000000000004000000000000000000000000800000000000001000000000000000000000000000000000000008000000000000000000000000000000000002000000000008000000000000000000000000000000000000000000000020000000000000000000000000000000000000000000000000000000000000000000000000000000000000000000000000000000000000000000000000000000010000000000000000000000000000000000000000000040000000000000000",
      "type": "0x2",
      "transactionHash": "0x2e80fd2f338bef0cae6b19f75794bee2debf836d1adc65942d2da22ef81e5c1e",
      "transactionIndex": "0x80",
      "blockHash": "0xfac395b7034ecc89125880afb083c5c9987fbae90f2710d3dd7526bebe7b4c85",
      "blockNumber": "0xa0288d",
      "gasUsed": "0x6a90",
      "effectiveGasPrice": "0xf4251",
      "from": "0x599cbb31cd468df8022502e69710b01ccf53efa4",
      "to": "0x02b3d7aad00aefdb8f3fe1d5e3fdb7ed78cc41a3",
      "contractAddress": null
    },
    {
      "status": "0x1",
      "cumulativeGasUsed": "0x1fc2ae9",
      "logs": [
        {
          "address": "0x000000000022d473030f116ddee9f6b43ac78ba3",
          "topics": [
            "0xda9fa7c1b00402c17d0161b249b1ab8bbec047c5a52207b9c112deffd817036b",
            "0x000000000000000000000000599cbb31cd468df8022502e69710b01ccf53efa4",
            "0x00000000000000000000000002b3d7aad00aefdb8f3fe1d5e3fdb7ed78cc41a3",
            "0x000000000000000000000000429ba70129df741b2ca2a85bc3a2a3328e5c09b4"
          ],
          "data": "0x000000000000000000000000ffffffffffffffffffffffffffffffffffffffff0000000000000000000000000000000000000000000000000000ffffffffffff",
          "blockHash": "0xfac395b7034ecc89125880afb083c5c9987fbae90f2710d3dd7526bebe7b4c85",
          "blockNumber": "0xa0288d",
          "blockTimestamp": "0x69bf9214",
          "transactionHash": "0xc3fdafcadef0edb4a71b6d9d9fb57ed5bafd5c355dff5c644674fc9da55a8cfa",
          "transactionIndex": "0x81",
          "logIndex": "0x30e",
          "removed": false
        }
      ],
      "logsBloom": "0x00010000000000000000000000000000000000000000000000000000000000000000000000000040080000000000000000000000000000000000000000080000000000800000000000000000000000000000000000000000000000000001000000000000000000000000000000000000000000000000000000000800000000000020002000000000000000000000000000000000001000000001000000000000000000000000000000000000000000000000000000000000000000080000000000000000000000000000000000000000000000000000000040000000000000000000000000000040000000000000000000000000000000000000000000000400",
      "type": "0x2",
      "transactionHash": "0xc3fdafcadef0edb4a71b6d9d9fb57ed5bafd5c355dff5c644674fc9da55a8cfa",
      "transactionIndex": "0x81",
      "blockHash": "0xfac395b7034ecc89125880afb083c5c9987fbae90f2710d3dd7526bebe7b4c85",
      "blockNumber": "0xa0288d",
      "gasUsed": "0x6d0e",
      "effectiveGasPrice": "0xf4251",
      "from": "0x599cbb31cd468df8022502e69710b01ccf53efa4",
      "to": "0x000000000022d473030f116ddee9f6b43ac78ba3",
      "contractAddress": null
    },
    {
      "status": "0x1",
      "cumulativeGasUsed": "0x1fc9579",
      "logs": [
        {
          "address": "0x7cc9c9f858ae836361a408b66d1198652fcb07b4",
          "topics": [
            "0x8c5be1e5ebec7d5bd14f71427d1e84f3dd0314c0f7b2291e5b200ac8c7c3b925",
            "0x000000000000000000000000599cbb31cd468df8022502e69710b01ccf53efa4",
            "0x000000000000000000000000000000000022d473030f116ddee9f6b43ac78ba3"
          ],
          "data": "0xffffffffffffffffffffffffffffffffffffffffffffffffffffffffffffffff",
          "blockHash": "0xfac395b7034ecc89125880afb083c5c9987fbae90f2710d3dd7526bebe7b4c85",
          "blockNumber": "0xa0288d",
          "blockTimestamp": "0x69bf9214",
          "transactionHash": "0x5c3697934672d3e4a164d40ea9806d860f6c277dd226c7eb6c1728be78c230c9",
          "transactionIndex": "0x82",
          "logIndex": "0x30f",
          "removed": false
        }
      ],
      "logsBloom": "0x00000000000000000000000000000000000000000000000000000000000000000000000000000000000000000000000000000000840000000000000000200000000000800000040000004000000000000000000000000800000000000001000000000000000000000000000000000000000000000000000000000000000000000000002000000000000000000000000000000000000000000000000000000004020000000000000000000000000000000000000000000000000000000000000000000000000000000000000000000000000000000000000000000000000000000010000000000000000000000000000000000000000000000000000000000000",
      "type": "0x2",
      "transactionHash": "0x5c3697934672d3e4a164d40ea9806d860f6c277dd226c7eb6c1728be78c230c9",
      "transactionIndex": "0x82",
      "blockHash": "0xfac395b7034ecc89125880afb083c5c9987fbae90f2710d3dd7526bebe7b4c85",
      "blockNumber": "0xa0288d",
      "gasUsed": "0x6a90",
      "effectiveGasPrice": "0xf4251",
      "from": "0x599cbb31cd468df8022502e69710b01ccf53efa4",
      "to": "0x7cc9c9f858ae836361a408b66d1198652fcb07b4",
      "contractAddress": null
    },
    {
      "status": "0x1",
      "cumulativeGasUsed": "0x1fd0287",
      "logs": [
        {
          "address": "0x000000000022d473030f116ddee9f6b43ac78ba3",
          "topics": [
            "0xda9fa7c1b00402c17d0161b249b1ab8bbec047c5a52207b9c112deffd817036b",
            "0x000000000000000000000000599cbb31cd468df8022502e69710b01ccf53efa4",
            "0x0000000000000000000000007cc9c9f858ae836361a408b66d1198652fcb07b4",
            "0x000000000000000000000000429ba70129df741b2ca2a85bc3a2a3328e5c09b4"
          ],
          "data": "0x000000000000000000000000ffffffffffffffffffffffffffffffffffffffff0000000000000000000000000000000000000000000000000000ffffffffffff",
          "blockHash": "0xfac395b7034ecc89125880afb083c5c9987fbae90f2710d3dd7526bebe7b4c85",
          "blockNumber": "0xa0288d",
          "blockTimestamp": "0x69bf9214",
          "transactionHash": "0x473b91a6a8cd0e019b05c7d72021f2b34e15d9d3f537e5957911e3db74b857d4",
          "transactionIndex": "0x83",
          "logIndex": "0x310",
          "removed": false
        }
      ],
      "logsBloom": "0x00010000000000000000002000000000000000000000000000000200000000000000000000000040080000000000000000000000000000000000000000080000000000800000000000000000000000000000000000000000000000000001000000000000000000000000000000000000000000000000000000000800000000000020002000000000000000000000000000000000000008000000000000000000000000000000000000000000000000000000000000000000000000080000000000000000000000000000000000000000000000000000000040000000000000000000000000000000000000000000000000000000000000000000000000000400",
      "type": "0x2",
      "transactionHash": "0x473b91a6a8cd0e019b05c7d72021f2b34e15d9d3f537e5957911e3db74b857d4",
      "transactionIndex": "0x83",
      "blockHash": "0xfac395b7034ecc89125880afb083c5c9987fbae90f2710d3dd7526bebe7b4c85",
      "blockNumber": "0xa0288d",
      "gasUsed": "0x6d0e",
      "effectiveGasPrice": "0xf4251",
      "from": "0x599cbb31cd468df8022502e69710b01ccf53efa4",
      "to": "0x000000000022d473030f116ddee9f6b43ac78ba3",
      "contractAddress": null
    },
    {
      "status": "0x1",
      "cumulativeGasUsed": "0x2005020",
      "logs": [
        {
          "address": "0x429ba70129df741b2ca2a85bc3a2a3328e5c09b4",
          "topics": [
            "0xddf252ad1be2c89b69c2b068fc378daa952ba7f163c4a11628f55a4df523b3ef",
            "0x0000000000000000000000000000000000000000000000000000000000000000",
            "0x000000000000000000000000599cbb31cd468df8022502e69710b01ccf53efa4",
            "0x000000000000000000000000000000000000000000000000000000000000619c"
          ],
          "data": "0x",
          "blockHash": "0xfac395b7034ecc89125880afb083c5c9987fbae90f2710d3dd7526bebe7b4c85",
          "blockNumber": "0xa0288d",
          "blockTimestamp": "0x69bf9214",
          "transactionHash": "0x8d228b907cc0603c5e6bc950afe4974d83c19950b6883579aae92506d9cfdd9c",
          "transactionIndex": "0x84",
          "logIndex": "0x311",
          "removed": false
        },
        {
          "address": "0xe03a1074c86cfedd5c142c4f04f1a1536e203543",
          "topics": [
            "0xf208f4912782fd25c7f114ca3723a2d5dd6f3bcc3ac8db5af63baa85f711d5ec",
            "0xdb7e80f725cb78c8885dee26a7d79a6de78de4eacab362b8859b639bac93c549",
            "0x000000000000000000000000429ba70129df741b2ca2a85bc3a2a3328e5c09b4"
          ],
          "data": "0x000000000000000000000000000000000000000000000000000000000004e80400000000000000000000000000000000000000000000000000000000000a66440000000000000000000000000000000000000000000000000000012b36da9984000000000000000000000000000000000000000000000000000000000000619c",
          "blockHash": "0xfac395b7034ecc89125880afb083c5c9987fbae90f2710d3dd7526bebe7b4c85",
          "blockNumber": "0xa0288d",
          "blockTimestamp": "0x69bf9214",
          "transactionHash": "0x8d228b907cc0603c5e6bc950afe4974d83c19950b6883579aae92506d9cfdd9c",
          "transactionIndex": "0x84",
          "logIndex": "0x312",
          "removed": false
        },
        {
          "address": "0x02b3d7aad00aefdb8f3fe1d5e3fdb7ed78cc41a3",
          "topics": [
            "0xddf252ad1be2c89b69c2b068fc378daa952ba7f163c4a11628f55a4df523b3ef",
            "0x000000000000000000000000599cbb31cd468df8022502e69710b01ccf53efa4",
            "0x000000000000000000000000e03a1074c86cfedd5c142c4f04f1a1536e203543"
          ],
          "data": "0x0000000000000000000000000000000000000000000000000000000000020b7b",
          "blockHash": "0xfac395b7034ecc89125880afb083c5c9987fbae90f2710d3dd7526bebe7b4c85",
          "blockNumber": "0xa0288d",
          "blockTimestamp": "0x69bf9214",
          "transactionHash": "0x8d228b907cc0603c5e6bc950afe4974d83c19950b6883579aae92506d9cfdd9c",
          "transactionIndex": "0x84",
          "logIndex": "0x313",
          "removed": false
        }
      ],
      "logsBloom": "0x00000000000010000000001000000000000080000000000000000000080000000000000000000040080000000000000000000100000000000000000000000000000000800000000000000008000000001000000000000000000000000001000000000000020000000000000080000800008000000000100000000810000000000000002001000000008010000000000000000000000000000000000000000000000004000000000000000000000000000000000000400000004000000000000000000002000000020000000000000000000010000000000000001000000020001000000000000000000000000000000004000000000000040000000000000000",
      "type": "0x2",
      "transactionHash": "0x8d228b907cc0603c5e6bc950afe4974d83c19950b6883579aae92506d9cfdd9c",
      "transactionIndex": "0x84",
      "blockHash": "0xfac395b7034ecc89125880afb083c5c9987fbae90f2710d3dd7526bebe7b4c85",
      "blockNumber": "0xa0288d",
      "gasUsed": "0x34d99",
      "effectiveGasPrice": "0xf4251",
      "from": "0x599cbb31cd468df8022502e69710b01ccf53efa4",
      "to": "0x429ba70129df741b2ca2a85bc3a2a3328e5c09b4",
      "contractAddress": null
    }
  ],
  "libraries": [],
  "pending": [],
  "returns": {},
  "timestamp": 1774162453657,
  "chain": 11155111,
  "commit": "3947a11"
}