{
  "transactions": [
    {
      "hash": "0xc957cc35811210395a10bfb6998134735b4ca7d341299c9cda8a1924c4524407",
      "transactionType": "CALL",
      "contractName": null,
      "contractAddress": "0x02b3d7aad00aefdb8f3fe1d5e3fdb7ed78cc41a3",
      "function": "approve(address,uint256)",
      "arguments": [
        "0x000000000022D473030F116dDEE9F6B43aC78BA3",
        "115792089237316195423570985008687907853269984665640564039457584007913129639935"
      ],
      "transaction": {
        "from": "0x599cbb31cd468df8022502e69710b01ccf53efa4",
        "to": "0x02b3d7aad00aefdb8f3fe1d5e3fdb7ed78cc41a3",
        "gas": "0x9330",
        "value": "0x0",
        "input": "0x095ea7b3000000000000000000000000000000000022d473030f116ddee9f6b43ac78ba3ffffffffffffffffffffffffffffffffffffffffffffffffffffffffffffffff",
        "nonce": "0x1e",
        "chainId": "0xaa36a7"
      },
      "additionalContracts": [],
      "isFixedGasLimit": false
    },
    {
      "hash": "0x7d593d591a0ce075632dc6b180fb3e72af2f8b42cad21d0c74e21cf4213097b6",
      "transactionType": "CALL",
      "contractName": null,
      "contractAddress": "0x000000000022d473030f116ddee9f6b43ac78ba3",
      "function": "approve(address,address,uint160,uint48)",
      "arguments": [
        "0x02b3d7aAd00aEFDB8f3fe1d5E3fdB7ed78CC41A3",
        "0x429ba70129df741B2Ca2a85BC3A2a3328e5c09b4",
        "1461501637330902918203684832716283019655932542975",
        "281474976710655"
      ],
      "transaction": {
        "from": "0x599cbb31cd468df8022502e69710b01ccf53efa4",
        "to": "0x000000000022d473030f116ddee9f6b43ac78ba3",
        "gas": "0x96a0",
        "value": "0x0",
        "input": "0x87517c4500000000000000000000000002b3d7aad00aefdb8f3fe1d5e3fdb7ed78cc41a3000000000000000000000000429ba70129df741b2ca2a85bc3a2a3328e5c09b4000000000000000000000000ffffffffffffffffffffffffffffffffffffffff0000000000000000000000000000000000000000000000000000ffffffffffff",
        "nonce": "0x1f",
        "chainId": "0xaa36a7"
      },
      "additionalContracts": [],
      "isFixedGasLimit": false
    },
    {
      "hash": "0x9d735aae9bd551ae11dd736397868605265f504da5a9638a78d212c8e4e1e7c6",
      "transactionType": "CALL",
      "contractName": null,
      "contractAddress": "0x7cc9c9f858ae836361a408b66d1198652fcb07b4",
      "function": "approve(address,uint256)",
      "arguments": [
        "0x000000000022D473030F116dDEE9F6B43aC78BA3",
        "115792089237316195423570985008687907853269984665640564039457584007913129639935"
      ],
      "transaction": {
        "from": "0x599cbb31cd468df8022502e69710b01ccf53efa4",
        "to": "0x7cc9c9f858ae836361a408b66d1198652fcb07b4",
        "gas": "0x9330",
        "value": "0x0",
        "input": "0x095ea7b3000000000000000000000000000000000022d473030f116ddee9f6b43ac78ba3ffffffffffffffffffffffffffffffffffffffffffffffffffffffffffffffff",
        "nonce": "0x20",
        "chainId": "0xaa36a7"
      },
      "additionalContracts": [],
      "isFixedGasLimit": false
    },
    {
      "hash": "0xe3d5112237b07cf6c7591664b86c2b339497ff35146443d5901b3c8b4901c369",
      "transactionType": "CALL",
      "contractName": null,
      "contractAddress": "0x000000000022d473030f116ddee9f6b43ac78ba3",
      "function": "approve(address,address,uint160,uint48)",
      "arguments": [
        "0x7Cc9c9F858Ae836361a408B66d1198652fCb07B4",
        "0x429ba70129df741B2Ca2a85BC3A2a3328e5c09b4",
        "1461501637330902918203684832716283019655932542975",
        "281474976710655"
      ],
      "transaction": {
        "from": "0x599cbb31cd468df8022502e69710b01ccf53efa4",
        "to": "0x000000000022d473030f116ddee9f6b43ac78ba3",
        "gas": "0x96a0",
        "value": "0x0",
        "input": "0x87517c450000000000000000000000007cc9c9f858ae836361a408b66d1198652fcb07b4000000000000000000000000429ba70129df741b2ca2a85bc3a2a3328e5c09b4000000000000000000000000ffffffffffffffffffffffffffffffffffffffff0000000000000000000000000000000000000000000000000000ffffffffffff",
        "nonce": "0x21",
        "chainId": "0xaa36a7"
      },
      "additionalContracts": [],
      "isFixedGasLimit": false
    },
    {
      "hash": "0xe8ee36b4c7174fa342dd4247de74dab69e009e32ca0f968fcebd11b6d0703604",
      "transactionType": "CALL",
      "contractName": null,
      "contractAddress": "0x429ba70129df741b2ca2a85bc3a2a3328e5c09b4",
      "function": "multicall(bytes[])",
      "arguments": [
        "[0xf702040500000000000000000000000002b3d7aad00aefdb8f3fe1d5e3fdb7ed78cc41a30000000000000000000000007cc9c9f858ae836361a408b66d1198652fcb07b40000000000000000000000000000000000000000000000000000000000000bb8000000000000000000000000000000000000000000000000000000000000003c0000000000000000000000000000000000000000000000000000000000000000000000000000000000000000000000121ea5fd5c740f61b1aca600000000000000000000000000000000000000000000000000000000000000000000000000e00000000000000000000000000000000000000000000000000000000000000000, 0xdd46508f00000000000000000000000000000000000000000000000000000000000000400000000000000000000000000000000000000000000000000000000069bf95a40000000000000000000000000000000000000000000000000000000000000400000000000000000000000000000000000000000000000000000000000000004000000000000000000000000000000000000000000000000000000000000000800000000000000000000000000000000000000000000000000000000000000004020d14140000000000000000000000000000000000000000000000000000000000000000000000000000000000000000000000000000000000000000000000040000000000000000000000000000000000000000000000000000000000000080000000000000000000000000000000000000000000000000000000000000024000000000000000000000000000000000000000000000000000000000000002a0000000000000000000000000000000000000000000000000000000000000030000000000000000000000000000000000000000000000000000000000000001a000000000000000000000000002b3d7aad00aefdb8f3fe1d5e3fdb7ed78cc41a30000000000000000000000007cc9c9f858ae836361a408b66d1198652fcb07b40000000000000000000000000000000000000000000000000000000000000bb8000000000000000000000000000000000000000000000000000000000000003c0000000000000000000000000000000000000000000000000000000000000000000000000000000000000000000000000000000000000000000000000004e80400000000000000000000000000000000000000000000000000000000000a66440000000000000000000000000000000000000000000000000000012b36da9984000000000000000000000000000000000000000000084595161401484a00000100000000000000000000000000000000000000000000152d02c7e14af6800001000000000000000000000000599cbb31cd468df8022502e69710b01ccf53efa400000000000000000000000000000000000000000000000000000000000001800000000000000000000000000000000000000000000000000000000000000000000000000000000000000000000000000000000000000000000000000000004000000000000000000000000002b3d7aad00aefdb8f3fe1d5e3fdb7ed78cc41a30000000000000000000000007cc9c9f858ae836361a408b66d1198652fcb07b4000000000000000000000000000000000000000000000000000000000000004000000000000000000000000002b3d7aad00aefdb8f3fe1d5e3fdb7ed78cc41a3000000000000000000000000599cbb31cd468df8022502e69710b01ccf53efa400000000000000000000000000000000000000000000000000000000000000400000000000000000000000007cc9c9f858ae836361a408b66d1198652fcb07b4000000000000000000000000599cbb31cd468df8022502e69710b01ccf53efa4]"
      ],
      "transaction": {
        "from": "0x599cbb31cd468df8022502e69710b01ccf53efa4",
        "to": "0x429ba70129df741b2ca2a85bc3a2a3328e5c09b4",
        "gas": "0x698ca",
        "value": "0x0",
        "input": "0xac9650d800000000000000000000000000000000000000000000000000000000000000200000000000000000000000000000000000000000000000000000000000000002000000000000000000000000000000000000000000000000000000000000004000000000000000000000000000000000000000000000000000000000000001800000000000000000000000000000000000000000000000000000000000000104f702040500000000000000000000000002b3d7aad00aefdb8f3fe1d5e3fdb7ed78cc41a30000000000000000000000007cc9c9f858ae836361a408b66d1198652fcb07b40000000000000000000000000000000000000000000000000000000000000bb8000000000000000000000000000000000000000000000000000000000000003c0000000000000000000000000000000000000000000000000000000000000000000000000000000000000000000000121ea5fd5c740f61b1aca600000000000000000000000000000000000000000000000000000000000000000000000000e00000000000000000000000000000000000000000000000000000000000000000000000000000000000000000000000000000000000000000000000000000000000000000000000000000000000000000000000000000000000000464dd46508f00000000000000000000000000000000000000000000000000000000000000400000000000000000000000000000000000000000000000000000000069bf95a40000000000000000000000000000000000000000000000000000000000000400000000000000000000000000000000000000000000000000000000000000004000000000000000000000000000000000000000000000000000000000000000800000000000000000000000000000000000000000000000000000000000000004020d14140000000000000000000000000000000000000000000000000000000000000000000000000000000000000000000000000000000000000000000000040000000000000000000000000000000000000000000000000000000000000080000000000000000000000000000000000000000000000000000000000000024000000000000000000000000000000000000000000000000000000000000002a0000000000000000000000000000000000000000000000000000000000000030000000000000000000000000000000000000000000000000000000000000001a000000000000000000000000002b3d7aad00aefdb8f3fe1d5e3fdb7ed78cc41a30000000000000000000000007cc9c9f858ae836361a408b66d1198652fcb07b40000000000000000000000000000000000000000000000000000000000000bb8000000000000000000000000000000000000000000000000000000000000003c0000000000000000000000000000000000000000000000000000000000000000000000000000000000000000000000000000000000000000000000000004e80400000000000000000000000000000000000000000000000000000000000a66440000000000000000000000000000000000000000000000000000012b36da9984000000000000000000000000000000000000000000084595161401484a00000100000000000000000000000000000000000000000000152d02c7e14af6800001000000000000000000000000599cbb31cd468df8022502e69710b01ccf53efa400000000000000000000000000000000000000000000000000000000000001800000000000000000000000000000000000000000000000000000000000000000000000000000000000000000000000000000000000000000000000000000004000000000000000000000000002b3d7aad00aefdb8f3fe1d5e3fdb7ed78cc41a30000000000000000000000007cc9c9f858ae836361a408b66d1198652fcb07b4000000000000000000000000000000000000000000000000000000000000004000000000000000000000000002b3d7aad00aefdb8f3fe1d5e3fdb7ed78cc41a3000000000000000000000000599cbb31cd468df8022502e69710b01ccf53efa400000000000000000000000000000000000000000000000000000000000000400000000000000000000000007cc9c9f858ae836361a408b66d1198652fcb07b4000000000000000000000000599cbb31cd468df8022502e69710b01ccf53efa400000000000000000000000000000000000000000000000000000000",
        "nonce": "0x22",
        "chainId": "0xaa36a7"
      },
      "additionalContracts": [],
      "isFixedGasLimit": false
    }
  ],
  "receipts": [
    {
      "status": "0x1",
      "cumulativeGasUsed": "0xb207bc",
      "logs": [
        {
          "address": "0x02b3d7aad00aefdb8f3fe1d5e3fdb7ed78cc41a3",
          "topics": [
            "0x8c5be1e5ebec7d5bd14f71427d1e84f3dd0314c0f7b2291e5b200ac8c7c3b925",
            "0x000000000000000000000000599cbb31cd468df8022502e69710b01ccf53efa4",
            "0x000000000000000000000000000000000022d473030f116ddee9f6b43ac78ba3"
          ],
          "data": "0xffffffffffffffffffffffffffffffffffffffffffffffffffffffffffffffff",
          "blockHash": "0x850e0aec2357d68c648f53893e94bb076876db7d4f02ce429123cf0046935c02",
          "blockNumber": "0xa027b6",
          "blockTimestamp": "0x69bf87b8",
          "transactionHash": "0x7d593d591a0ce075632dc6b180fb3e72af2f8b42cad21d0c74e21cf4213097b6",
          "transactionIndex": "0x60",
          "logIndex": "0x1a4",
          "removed": false
        }
      ],
      "logsBloom": "0x00000000000000000000000000000000000000000000000000000000000000000000000000000000000000000000000000000000800000000000000000200000000000800000000000004000000000000000000000000800000000000001000000000000000000000000000000000000008000000000000000000000000000000000002000000000008000000000000000000000000000000000000000000000020000000000000000000000000000000000000000000000000000000000000000000000000000000000000000000000000000000000000000000000000000000010000000000000000000000000000000000000000000040000000000000000",
      "type": "0x2",
      "transactionHash": "0x7d593d591a0ce075632dc6b180fb3e72af2f8b42cad21d0c74e21cf4213097b6",
      "transactionIndex": "0x60",
      "blockHash": "0x850e0aec2357d68c648f53893e94bb076876db7d4f02ce429123cf0046935c02",
      "blockNumber": "0xa027b6",
      "gasUsed": "0x6a90",
      "effectiveGasPrice": "0xf4258",
      "from": "0x599cbb31cd468df8022502e69710b01ccf53efa4",
      "to": "0x02b3d7aad00aefdb8f3fe1d5e3fdb7ed78cc41a3",
      "contractAddress": null
    },
    {
      "status": "0x1",
      "cumulativeGasUsed": "0xb274ca",
      "logs": [
        {
          "address": "0x000000000022d473030f116ddee9f6b43ac78ba3",
          "topics": [
            "0xda9fa7c1b00402c17d0161b249b1ab8bbec047c5a52207b9c112deffd817036b",
            "0x000000000000000000000000599cbb31cd468df8022502e69710b01ccf53efa4",
            "0x00000000000000000000000002b3d7aad00aefdb8f3fe1d5e3fdb7ed78cc41a3",
            "0x000000000000000000000000429ba70129df741b2ca2a85bc3a2a3328e5c09b4"
          ],
          "data": "0x000000000000000000000000ffffffffffffffffffffffffffffffffffffffff0000000000000000000000000000000000000000000000000000ffffffffffff",
          "blockHash": "0x850e0aec2357d68c648f53893e94bb076876db7d4f02ce429123cf0046935c02",
          "blockNumber": "0xa027b6",
          "blockTimestamp": "0x69bf87b8",
          "transactionHash": "0x9d735aae9bd551ae11dd736397868605265f504da5a9638a78d212c8e4e1e7c6",
          "transactionIndex": "0x61",
          "logIndex": "0x1a5",
          "removed": false
        }
      ],
      "logsBloom": "0x00010000000000000000000000000000000000000000000000000000000000000000000000000040080000000000000000000000000000000000000000080000000000800000000000000000000000000000000000000000000000000001000000000000000000000000000000000000000000000000000000000800000000000020002000000000000000000000000000000000001000000001000000000000000000000000000000000000000000000000000000000000000000080000000000000000000000000000000000000000000000000000000040000000000000000000000000000040000000000000000000000000000000000000000000000400",
      "type": "0x2",
      "transactionHash": "0x9d735aae9bd551ae11dd736397868605265f504da5a9638a78d212c8e4e1e7c6",
      "transactionIndex": "0x61",
      "blockHash": "0x850e0aec2357d68c648f53893e94bb076876db7d4f02ce429123cf0046935c02",
      "blockNumber": "0xa027b6",
      "gasUsed": "0x6d0e",
      "effectiveGasPrice": "0xf4258",
      "from": "0x599cbb31cd468df8022502e69710b01ccf53efa4",
      "to": "0x000000000022d473030f116ddee9f6b43ac78ba3",
      "contractAddress": null
    },
    {
      "status": "0x1",
      "cumulativeGasUsed": "0xb2df5a",
      "logs": [
        {
          "address": "0x7cc9c9f858ae836361a408b66d1198652fcb07b4",
          "topics": [
            "0x8c5be1e5ebec7d5bd14f71427d1e84f3dd0314c0f7b2291e5b200ac8c7c3b925",
            "0x000000000000000000000000599cbb31cd468df8022502e69710b01ccf53efa4",
            "0x000000000000000000000000000000000022d473030f116ddee9f6b43ac78ba3"
          ],
          "data": "0xffffffffffffffffffffffffffffffffffffffffffffffffffffffffffffffff",
          "blockHash": "0x850e0aec2357d68c648f53893e94bb076876db7d4f02ce429123cf0046935c02",
          "blockNumber": "0xa027b6",
          "blockTimestamp": "0x69bf87b8",
          "transactionHash": "0xc957cc35811210395a10bfb6998134735b4ca7d341299c9cda8a1924c4524407",
          "transactionIndex": "0x62",
          "logIndex": "0x1a6",
          "removed": false
        }
      ],
      "logsBloom": "0x00000000000000000000000000000000000000000000000000000000000000000000000000000000000000000000000000000000840000000000000000200000000000800000040000004000000000000000000000000800000000000001000000000000000000000000000000000000000000000000000000000000000000000000002000000000000000000000000000000000000000000000000000000004020000000000000000000000000000000000000000000000000000000000000000000000000000000000000000000000000000000000000000000000000000000010000000000000000000000000000000000000000000000000000000000000",
      "type": "0x2",
      "transactionHash": "0xc957cc35811210395a10bfb6998134735b4ca7d341299c9cda8a1924c4524407",
      "transactionIndex": "0x62",
      "blockHash": "0x850e0aec2357d68c648f53893e94bb076876db7d4f02ce429123cf0046935c02",
      "blockNumber": "0xa027b6",
      "gasUsed": "0x6a90",
      "effectiveGasPrice": "0xf4258",
      "from": "0x599cbb31cd468df8022502e69710b01ccf53efa4",
      "to": "0x7cc9c9f858ae836361a408b66d1198652fcb07b4",
      "contractAddress": null
    },
    {
      "status": "0x1",
      "cumulativeGasUsed": "0xb34c68",
      "logs": [
        {
          "address": "0x000000000022d473030f116ddee9f6b43ac78ba3",
          "topics": [
            "0xda9fa7c1b00402c17d0161b249b1ab8bbec047c5a52207b9c112deffd817036b",
            "0x000000000000000000000000599cbb31cd468df8022502e69710b01ccf53efa4",
            "0x0000000000000000000000007cc9c9f858ae836361a408b66d1198652fcb07b4",
            "0x000000000000000000000000429ba70129df741b2ca2a85bc3a2a3328e5c09b4"
          ],
          "data": "0x000000000000000000000000ffffffffffffffffffffffffffffffffffffffff0000000000000000000000000000000000000000000000000000ffffffffffff",
          "blockHash": "0x850e0aec2357d68c648f53893e94bb076876db7d4f02ce429123cf0046935c02",
          "blockNumber": "0xa027b6",
          "blockTimestamp": "0x69bf87b8",
          "transactionHash": "0xe3d5112237b07cf6c7591664b86c2b339497ff35146443d5901b3c8b4901c369",
          "transactionIndex": "0x63",
          "logIndex": "0x1a7",
          "removed": false
        }
      ],
      "logsBloom": "0x00010000000000000000002000000000000000000000000000000200000000000000000000000040080000000000000000000000000000000000000000080000000000800000000000000000000000000000000000000000000000000001000000000000000000000000000000000000000000000000000000000800000000000020002000000000000000000000000000000000000008000000000000000000000000000000000000000000000000000000000000000000000000080000000000000000000000000000000000000000000000000000000040000000000000000000000000000000000000000000000000000000000000000000000000000400",
      "type": "0x2",
      "transactionHash": "0xe3d5112237b07cf6c7591664b86c2b339497ff35146443d5901b3c8b4901c369",
      "transactionIndex": "0x63",
      "blockHash": "0x850e0aec2357d68c648f53893e94bb076876db7d4f02ce429123cf0046935c02",
      "blockNumber": "0xa027b6",
      "gasUsed": "0x6d0e",
      "effectiveGasPrice": "0xf4258",
      "from": "0x599cbb31cd468df8022502e69710b01ccf53efa4",
      "to": "0x000000000022d473030f116ddee9f6b43ac78ba3",
      "contractAddress": null
    },
    {
      "status": "0x1",
      "cumulativeGasUsed": "0xb7cf23",
      "logs": [
        {
          "address": "0x429ba70129df741b2ca2a85bc3a2a3328e5c09b4",
          "topics": [
            "0xddf252ad1be2c89b69c2b068fc378daa952ba7f163c4a11628f55a4df523b3ef",
            "0x0000000000000000000000000000000000000000000000000000000000000000",
            "0x000000000000000000000000599cbb31cd468df8022502e69710b01ccf53efa4",
            "0x0000000000000000000000000000000000000000000000000000000000006199"
          ],
          "data": "0x",
          "blockHash": "0x850e0aec2357d68c648f53893e94bb076876db7d4f02ce429123cf0046935c02",
          "blockNumber": "0xa027b6",
          "blockTimestamp": "0x69bf87b8",
          "transactionHash": "0xe8ee36b4c7174fa342dd4247de74dab69e009e32ca0f968fcebd11b6d0703604",
          "transactionIndex": "0x64",
          "logIndex": "0x1a8",
          "removed": false
        },
        {
          "address": "0xe03a1074c86cfedd5c142c4f04f1a1536e203543",
          "topics": [
            "0xf208f4912782fd25c7f114ca3723a2d5dd6f3bcc3ac8db5af63baa85f711d5ec",
            "0xdb7e80f725cb78c8885dee26a7d79a6de78de4eacab362b8859b639bac93c549",
            "0x000000000000000000000000429ba70129df741b2ca2a85bc3a2a3328e5c09b4"
          ],
          "data": "0x000000000000000000000000000000000000000000000000000000000004e80400000000000000000000000000000000000000000000000000000000000a66440000000000000000000000000000000000000000000000000000012b36da99840000000000000000000000000000000000000000000000000000000000006199",
          "blockHash": "0x850e0aec2357d68c648f53893e94bb076876db7d4f02ce429123cf0046935c02",
          "blockNumber": "0xa027b6",
          "blockTimestamp": "0x69bf87b8",
          "transactionHash": "0xe8ee36b4c7174fa342dd4247de74dab69e009e32ca0f968fcebd11b6d0703604",
          "transactionIndex": "0x64",
          "logIndex": "0x1a9",
          "removed": false
        },
        {
          "address": "0x02b3d7aad00aefdb8f3fe1d5e3fdb7ed78cc41a3",
          "topics": [
            "0xddf252ad1be2c89b69c2b068fc378daa952ba7f163c4a11628f55a4df523b3ef",
            "0x000000000000000000000000599cbb31cd468df8022502e69710b01ccf53efa4",
            "0x000000000000000000000000e03a1074c86cfedd5c142c4f04f1a1536e203543"
          ],
          "data": "0x0000000000000000000000000000000000000000000000000000000000020b7b",
          "blockHash": "0x850e0aec2357d68c648f53893e94bb076876db7d4f02ce429123cf0046935c02",
          "blockNumber": "0xa027b6",
          "blockTimestamp": "0x69bf87b8",
          "transactionHash": "0xe8ee36b4c7174fa342dd4247de74dab69e009e32ca0f968fcebd11b6d0703604",
          "transactionIndex": "0x64",
          "logIndex": "0x1aa",
          "removed": false
        }
      ],
      "logsBloom": "0x00000000000010000000001000000000000000000000000000000000080000000000000000000040080000000000000000000100000000000000000000000000000000800000000000000008000000000000000000000000000000000001000000000000020000000000000080000804008000000000900000000810000000000000002001000000008010000000000000000000000000000000000000000000000004000000000000000000000000000000000000400000004000000000000000000002000000000000000000000000000010000000000000001000000020001000000000000000000000000000000004000000000000040000000000000000",
      "type": "0x2",
      "transactionHash": "0xe8ee36b4c7174fa342dd4247de74dab69e009e32ca0f968fcebd11b6d0703604",
      "transactionIndex": "0x64",
      "blockHash": "0x850e0aec2357d68c648f53893e94bb076876db7d4f02ce429123cf0046935c02",
      "blockNumber": "0xa027b6",
      "gasUsed": "0x482bb",
      "effectiveGasPrice": "0xf4258",
      "from": "0x599cbb31cd468df8022502e69710b01ccf53efa4",
      "to": "0x429ba70129df741b2ca2a85bc3a2a3328e5c09b4",
      "contractAddress": null
    }
  ],
  "libraries": [],
  "pending": [],
  "returns": {},
  "timestamp": 1774159800824,
  "chain": 11155111,
  "commit": "3947a11"
}