{
  "transactions": [
    {
      "hash": "0xbb00fa9431168e7af069440c97c3d8e95c9a4afe4399c5b6b610ffd488feab67",
      "transactionType": "CALL",
      "contractName": null,
      "contractAddress": "0x5fcbb6193b5dd9771f78e36b6811f3a05fbc684b",
      "function": "approve(address,uint256)",
      "arguments": [
        "0x000000000022D473030F116dDEE9F6B43aC78BA3",
        "115792089237316195423570985008687907853269984665640564039457584007913129639935"
      ],
      "transaction": {
        "from": "0x599cbb31cd468df8022502e69710b01ccf53efa4",
        "to": "0x5fcbb6193b5dd9771f78e36b6811f3a05fbc684b",
        "gas": "0xfe8e",
        "value": "0x0",
        "input": "0x095ea7b3000000000000000000000000000000000022d473030f116ddee9f6b43ac78ba3ffffffffffffffffffffffffffffffffffffffffffffffffffffffffffffffff",
        "nonce": "0x14",
        "chainId": "0xaa36a7"
      },
      "additionalContracts": [],
      "isFixedGasLimit": false
    },
    {
      "hash": "0x9aacd3c88b369e3276bc7138480f28988c5dda64c0b627e45ea0bf35c6787fe0",
      "transactionType": "CALL",
      "contractName": null,
      "contractAddress": "0x000000000022d473030f116ddee9f6b43ac78ba3",
      "function": "approve(address,address,uint160,uint48)",
      "arguments": [
        "0x5fCBb6193b5dD9771f78e36b6811f3A05FBc684B",
        "0x429ba70129df741B2Ca2a85BC3A2a3328e5c09b4",
        "1461501637330902918203684832716283019655932542975",
        "281474976710655"
      ],
      "transaction": {
        "from": "0x599cbb31cd468df8022502e69710b01ccf53efa4",
        "to": "0x000000000022d473030f116ddee9f6b43ac78ba3",
        "gas": "0x1112d",
        "value": "0x0",
        "input": "0x87517c450000000000000000000000005fcbb6193b5dd9771f78e36b6811f3a05fbc684b000000000000000000000000429ba70129df741b2ca2a85bc3a2a3328e5c09b4000000000000000000000000ffffffffffffffffffffffffffffffffffffffff0000000000000000000000000000000000000000000000000000ffffffffffff",
        "nonce": "0x15",
        "chainId": "0xaa36a7"
      },
      "additionalContracts": [],
      "isFixedGasLimit": false
    },
    {
      "hash": "0x0f5e1b1d95060f875358c15a669c9f51238a03be4aa62752eb5063b1c5357cc1",
      "transactionType": "CALL",
      "contractName": null,
      "contractAddress": "0x02b3d7aad00aefdb8f3fe1d5e3fdb7ed78cc41a3",
      "function": "approve(address,uint256)",
      "arguments": [
        "0x000000000022D473030F116dDEE9F6B43aC78BA3",
        "115792089237316195423570985008687907853269984665640564039457584007913129639935"
      ],
      "transaction": {
        "from": "0x599cbb31cd468df8022502e69710b01ccf53efa4",
        "to": "0x02b3d7aad00aefdb8f3fe1d5e3fdb7ed78cc41a3",
        "gas": "0xfe8e",
        "value": "0x0",
        "input": "0x095ea7b3000000000000000000000000000000000022d473030f116ddee9f6b43ac78ba3ffffffffffffffffffffffffffffffffffffffffffffffffffffffffffffffff",
        "nonce": "0x16",
        "chainId": "0xaa36a7"
      },
      "additionalContracts": [],
      "isFixedGasLimit": false
    },
    {
      "hash": "0x8616faea4b2609a6d81929887d4916ba6baa15e29f287591063eb37fe238bfa2",
      "transactionType": "CALL",
      "contractName": null,
      "contractAddress": "0x000000000022d473030f116ddee9f6b43ac78ba3",
      "function": "approve(address,address,uint160,uint48)",
      "arguments": [
        "0x02b3d7aAd00aEFDB8f3fe1d5E3fdB7ed78CC41A3",
        "0x429ba70129df741B2Ca2a85BC3A2a3328e5c09b4",
        "1461501637330902918203684832716283019655932542975",
        "281474976710655"
      ],
      "transaction": {
        "from": "0x599cbb31cd468df8022502e69710b01ccf53efa4",
        "to": "0x000000000022d473030f116ddee9f6b43ac78ba3",
        "gas": "0x1112d",
        "value": "0x0",
        "input": "0x87517c4500000000000000000000000002b3d7aad00aefdb8f3fe1d5e3fdb7ed78cc41a3000000000000000000000000429ba70129df741b2ca2a85bc3a2a3328e5c09b4000000000000000000000000ffffffffffffffffffffffffffffffffffffffff0000000000000000000000000000000000000000000000000000ffffffffffff",
        "nonce": "0x17",
        "chainId": "0xaa36a7"
      },
      "additionalContracts": [],
      "isFixedGasLimit": false
    },
    {
      "hash": "0x59f4eec560c80100f8efd73c78b388c42e0190d01fa6ec511469ddb147f27770",
      "transactionType": "CALL",
      "contractName": null,
      "contractAddress": "0x429ba70129df741b2ca2a85bc3a2a3328e5c09b4",
      "function": "multicall(bytes[])",
      "arguments": [
        "[0xf702040500000000000000000000000002b3d7aad00aefdb8f3fe1d5e3fdb7ed78cc41a30000000000000000000000005fcbb6193b5dd9771f78e36b6811f3a05fbc684b0000000000000000000000000000000000000000000000000000000000000bb8000000000000000000000000000000000000000000000000000000000000003c000000000000000000000000000000000000000000000000000000000000000000000000000000000000000000000000000000000002540be40000000000000000000000000000000000000000000000000000000000000000000000000000e00000000000000000000000000000000000000000000000000000000000000000, 0xdd46508f00000000000000000000000000000000000000000000000000000000000000400000000000000000000000000000000000000000000000000000000069bed7300000000000000000000000000000000000000000000000000000000000000400000000000000000000000000000000000000000000000000000000000000004000000000000000000000000000000000000000000000000000000000000000800000000000000000000000000000000000000000000000000000000000000004020d14140000000000000000000000000000000000000000000000000000000000000000000000000000000000000000000000000000000000000000000000040000000000000000000000000000000000000000000000000000000000000080000000000000000000000000000000000000000000000000000000000000024000000000000000000000000000000000000000000000000000000000000002a0000000000000000000000000000000000000000000000000000000000000030000000000000000000000000000000000000000000000000000000000000001a000000000000000000000000002b3d7aad00aefdb8f3fe1d5e3fdb7ed78cc41a30000000000000000000000005fcbb6193b5dd9771f78e36b6811f3a05fbc684b0000000000000000000000000000000000000000000000000000000000000bb8000000000000000000000000000000000000000000000000000000000000003c0000000000000000000000000000000000000000000000000000000000000000fffffffffffffffffffffffffffffffffffffffffffffffffffffffffffc2fd4fffffffffffffffffffffffffffffffffffffffffffffffffffffffffffd8f6400000000000000000000000000000000000000000000001586dd89ac65f5f3a6000000000000000000000000000000000000000000084595161401484a00000100000000000000000000000000000000000000000000152d02c7e14af6800001000000000000000000000000599cbb31cd468df8022502e69710b01ccf53efa400000000000000000000000000000000000000000000000000000000000001800000000000000000000000000000000000000000000000000000000000000000000000000000000000000000000000000000000000000000000000000000004000000000000000000000000002b3d7aad00aefdb8f3fe1d5e3fdb7ed78cc41a30000000000000000000000005fcbb6193b5dd9771f78e36b6811f3a05fbc684b000000000000000000000000000000000000000000000000000000000000004000000000000000000000000002b3d7aad00aefdb8f3fe1d5e3fdb7ed78cc41a3000000000000000000000000599cbb31cd468df8022502e69710b01ccf53efa400000000000000000000000000000000000000000000000000000000000000400000000000000000000000005fcbb6193b5dd9771f78e36b6811f3a05fbc684b000000000000000000000000599cbb31cd468df8022502e69710b01ccf53efa4]"
      ],
      "transaction": {
        "from": "0x599cbb31cd468df8022502e69710b01ccf53efa4",
        "to": "0x429ba70129df741b2ca2a85bc3a2a3328e5c09b4",
        "gas": "0xa80b9",
        "value": "0x0",
        "input": "0xac9650d800000000000000000000000000000000000000000000000000000000000000200000000000000000000000000000000000000000000000000000000000000002000000000000000000000000000000000000000000000000000000000000004000000000000000000000000000000000000000000000000000000000000001800000000000000000000000000000000000000000000000000000000000000104f702040500000000000000000000000002b3d7aad00aefdb8f3fe1d5e3fdb7ed78cc41a30000000000000000000000005fcbb6193b5dd9771f78e36b6811f3a05fbc684b0000000000000000000000000000000000000000000000000000000000000bb8000000000000000000000000000000000000000000000000000000000000003c000000000000000000000000000000000000000000000000000000000000000000000000000000000000000000000000000000000002540be40000000000000000000000000000000000000000000000000000000000000000000000000000e00000000000000000000000000000000000000000000000000000000000000000000000000000000000000000000000000000000000000000000000000000000000000000000000000000000000000000000000000000000000000464dd46508f00000000000000000000000000000000000000000000000000000000000000400000000000000000000000000000000000000000000000000000000069bed7300000000000000000000000000000000000000000000000000000000000000400000000000000000000000000000000000000000000000000000000000000004000000000000000000000000000000000000000000000000000000000000000800000000000000000000000000000000000000000000000000000000000000004020d14140000000000000000000000000000000000000000000000000000000000000000000000000000000000000000000000000000000000000000000000040000000000000000000000000000000000000000000000000000000000000080000000000000000000000000000000000000000000000000000000000000024000000000000000000000000000000000000000000000000000000000000002a0000000000000000000000000000000000000000000000000000000000000030000000000000000000000000000000000000000000000000000000000000001a000000000000000000000000002b3d7aad00aefdb8f3fe1d5e3fdb7ed78cc41a30000000000000000000000005fcbb6193b5dd9771f78e36b6811f3a05fbc684b0000000000000000000000000000000000000000000000000000000000000bb8000000000000000000000000000000000000000000000000000000000000003c0000000000000000000000000000000000000000000000000000000000000000fffffffffffffffffffffffffffffffffffffffffffffffffffffffffffc2fd4fffffffffffffffffffffffffffffffffffffffffffffffffffffffffffd8f6400000000000000000000000000000000000000000000001586dd89ac65f5f3a6000000000000000000000000000000000000000000084595161401484a00000100000000000000000000000000000000000000000000152d02c7e14af6800001000000000000000000000000599cbb31cd468df8022502e69710b01ccf53efa400000000000000000000000000000000000000000000000000000000000001800000000000000000000000000000000000000000000000000000000000000000000000000000000000000000000000000000000000000000000000000000004000000000000000000000000002b3d7aad00aefdb8f3fe1d5e3fdb7ed78cc41a30000000000000000000000005fcbb6193b5dd9771f78e36b6811f3a05fbc684b000000000000000000000000000000000000000000000000000000000000004000000000000000000000000002b3d7aad00aefdb8f3fe1d5e3fdb7ed78cc41a3000000000000000000000000599cbb31cd468df8022502e69710b01ccf53efa400000000000000000000000000000000000000000000000000000000000000400000000000000000000000005fcbb6193b5dd9771f78e36b6811f3a05fbc684b000000000000000000000000599cbb31cd468df8022502e69710b01ccf53efa400000000000000000000000000000000000000000000000000000000",
        "nonce": "0x18",
        "chainId": "0xaa36a7"
      },
      "additionalContracts": [],
      "isFixedGasLimit": false
    }
  ],
  "receipts": [
    {
      "status": "0x1",
      "cumulativeGasUsed": "0xdb573c",
      "logs": [
        {
          "address": "0x5fcbb6193b5dd9771f78e36b6811f3a05fbc684b",
          "topics": [
            "0x8c5be1e5ebec7d5bd14f71427d1e84f3dd0314c0f7b2291e5b200ac8c7c3b925",
            "0x000000000000000000000000599cbb31cd468df8022502e69710b01ccf53efa4",
            "0x000000000000000000000000000000000022d473030f116ddee9f6b43ac78ba3"
          ],
          "data": "0xffffffffffffffffffffffffffffffffffffffffffffffffffffffffffffffff",
          "blockHash": "0xb9e9295f0725123fe5e9ecaa4c62829d9cc39a8de75a18cef97e9c143da1cf0a",
          "blockNumber": "0xa01859",
          "blockTimestamp": "0x69bec968",
          "transactionHash": "0x59f4eec560c80100f8efd73c78b388c42e0190d01fa6ec511469ddb147f27770",
          "transactionIndex": "0x43",
          "logIndex": "0x140",
          "removed": false
        }
      ],
      "logsBloom": "0x00000000000000000000000000000000000000000000000000000000000000000000000010000000000000000000000000000000800000000000000000200000000000800000000000004000000000000000000004000800000000000001000000000000000000000000000000000000000000000000000000000000000000000000002000000000000000000000000000000000000000000000000000000000020000000000000000000000000000000000000000000000000000000000000000000000000000000000000000000000000000000000000000000000000000000010000004000000000000000000000000000000000000000000000000000000",
      "type": "0x2",
      "transactionHash": "0x59f4eec560c80100f8efd73c78b388c42e0190d01fa6ec511469ddb147f27770",
      "transactionIndex": "0x43",
      "blockHash": "0xb9e9295f0725123fe5e9ecaa4c62829d9cc39a8de75a18cef97e9c143da1cf0a",
      "blockNumber": "0xa01859",
      "gasUsed": "0xb84c",
      "effectiveGasPrice": "0xf4256",
      "from": "0x599cbb31cd468df8022502e69710b01ccf53efa4",
      "to": "0x5fcbb6193b5dd9771f78e36b6811f3a05fbc684b",
      "contractAddress": null
    },
    {
      "status": "0x1",
      "cumulativeGasUsed": "0xdc1206",
      "logs": [
        {
          "address": "0x000000000022d473030f116ddee9f6b43ac78ba3",
          "topics": [
            "0xda9fa7c1b00402c17d0161b249b1ab8bbec047c5a52207b9c112deffd817036b",
            "0x000000000000000000000000599cbb31cd468df8022502e69710b01ccf53efa4",
            "0x0000000000000000000000005fcbb6193b5dd9771f78e36b6811f3a05fbc684b",
            "0x000000000000000000000000429ba70129df741b2ca2a85bc3a2a3328e5c09b4"
          ],
          "data": "0x000000000000000000000000ffffffffffffffffffffffffffffffffffffffff0000000000000000000000000000000000000000000000000000ffffffffffff",
          "blockHash": "0xb9e9295f0725123fe5e9ecaa4c62829d9cc39a8de75a18cef97e9c143da1cf0a",
          "blockNumber": "0xa01859",
          "blockTimestamp": "0x69bec968",
          "transactionHash": "0xbb00fa9431168e7af069440c97c3d8e95c9a4afe4399c5b6b610ffd488feab67",
          "transactionIndex": "0x44",
          "logIndex": "0x141",
          "removed": false
        }
      ],
      "logsBloom": "0x00010000000000000000000000000000000000000000000000040000000000000000000000000040080000000000000000000000000000000000000000080000000000800000000000000000000000000000000000000000000000000001000000000000000000000000000000000000000000000000000000000800000000000020002000000000000000000000000000000000000000000000000000000000000000000000000000000000000000000000000000000000000000480000000000000000000000000000000000000000000000000000000040000000000000000000000000000000080000000000000000000000000000000000000000000400",
      "type": "0x2",
      "transactionHash": "0xbb00fa9431168e7af069440c97c3d8e95c9a4afe4399c5b6b610ffd488feab67",
      "transactionIndex": "0x44",
      "blockHash": "0xb9e9295f0725123fe5e9ecaa4c62829d9cc39a8de75a18cef97e9c143da1cf0a",
      "blockNumber": "0xa01859",
      "gasUsed": "0xbaca",
      "effectiveGasPrice": "0xf4256",
      "from": "0x599cbb31cd468df8022502e69710b01ccf53efa4",
      "to": "0x000000000022d473030f116ddee9f6b43ac78ba3",
      "contractAddress": null
    },
    {
      "status": "0x1",
      "cumulativeGasUsed": "0xdcca52",
      "logs": [
        {
          "address": "0x02b3d7aad00aefdb8f3fe1d5e3fdb7ed78cc41a3",
          "topics": [
            "0x8c5be1e5ebec7d5bd14f71427d1e84f3dd0314c0f7b2291e5b200ac8c7c3b925",
            "0x000000000000000000000000599cbb31cd468df8022502e69710b01ccf53efa4",
            "0x000000000000000000000000000000000022d473030f116ddee9f6b43ac78ba3"
          ],
          "data": "0xffffffffffffffffffffffffffffffffffffffffffffffffffffffffffffffff",
          "blockHash": "0xb9e9295f0725123fe5e9ecaa4c62829d9cc39a8de75a18cef97e9c143da1cf0a",
          "blockNumber": "0xa01859",
          "blockTimestamp": "0x69bec968",
          "transactionHash": "0x0f5e1b1d95060f875358c15a669c9f51238a03be4aa62752eb5063b1c5357cc1",
          "transactionIndex": "0x45",
          "logIndex": "0x142",
          "removed": false
        }
      ],
      "logsBloom": "0x00000000000000000000000000000000000000000000000000000000000000000000000000000000000000000000000000000000800000000000000000200000000000800000000000004000000000000000000000000800000000000001000000000000000000000000000000000000008000000000000000000000000000000000002000000000008000000000000000000000000000000000000000000000020000000000000000000000000000000000000000000000000000000000000000000000000000000000000000000000000000000000000000000000000000000010000000000000000000000000000000000000000000040000000000000000",
      "type": "0x2",
      "transactionHash": "0x0f5e1b1d95060f875358c15a669c9f51238a03be4aa62752eb5063b1c5357cc1",
      "transactionIndex": "0x45",
      "blockHash": "0xb9e9295f0725123fe5e9ecaa4c62829d9cc39a8de75a18cef97e9c143da1cf0a",
      "blockNumber": "0xa01859",
      "gasUsed": "0xb84c",
      "effectiveGasPrice": "0xf4256",
      "from": "0x599cbb31cd468df8022502e69710b01ccf53efa4",
      "to": "0x02b3d7aad00aefdb8f3fe1d5e3fdb7ed78cc41a3",
      "contractAddress": null
    },
    {
      "status": "0x1",
      "cumulativeGasUsed": "0xdd851c",
      "logs": [
        {
          "address": "0x000000000022d473030f116ddee9f6b43ac78ba3",
          "topics": [
            "0xda9fa7c1b00402c17d0161b249b1ab8bbec047c5a52207b9c112deffd817036b",
            "0x000000000000000000000000599cbb31cd468df8022502e69710b01ccf53efa4",
            "0x00000000000000000000000002b3d7aad00aefdb8f3fe1d5e3fdb7ed78cc41a3",
            "0x000000000000000000000000429ba70129df741b2ca2a85bc3a2a3328e5c09b4"
          ],
          "data": "0x000000000000000000000000ffffffffffffffffffffffffffffffffffffffff0000000000000000000000000000000000000000000000000000ffffffffffff",
          "blockHash": "0xb9e9295f0725123fe5e9ecaa4c62829d9cc39a8de75a18cef97e9c143da1cf0a",
          "blockNumber": "0xa01859",
          "blockTimestamp": "0x69bec968",
          "transactionHash": "0x9aacd3c88b369e3276bc7138480f28988c5dda64c0b627e45ea0bf35c6787fe0",
          "transactionIndex": "0x46",
          "logIndex": "0x143",
          "removed": false
        }
      ],
      "logsBloom": "0x00010000000000000000000000000000000000000000000000000000000000000000000000000040080000000000000000000000000000000000000000080000000000800000000000000000000000000000000000000000000000000001000000000000000000000000000000000000000000000000000000000800000000000020002000000000000000000000000000000000001000000001000000000000000000000000000000000000000000000000000000000000000000080000000000000000000000000000000000000000000000000000000040000000000000000000000000000040000000000000000000000000000000000000000000000400",
      "type": "0x2",
      "transactionHash": "0x9aacd3c88b369e3276bc7138480f28988c5dda64c0b627e45ea0bf35c6787fe0",
      "transactionIndex": "0x46",
      "blockHash": "0xb9e9295f0725123fe5e9ecaa4c62829d9cc39a8de75a18cef97e9c143da1cf0a",
      "blockNumber": "0xa01859",
      "gasUsed": "0xbaca",
      "effectiveGasPrice": "0xf4256",
      "from": "0x599cbb31cd468df8022502e69710b01ccf53efa4",
      "to": "0x000000000022d473030f116ddee9f6b43ac78ba3",
      "contractAddress": null
    },
    {
      "status": "0x1",
      "cumulativeGasUsed": "0xe67931",
      "logs": [
        {
          "address": "0xe03a1074c86cfedd5c142c4f04f1a1536e203543",
          "topics": [
            "0xdd466e674ea557f56295e2d0218a125ea4b4f0f6f3307b95f85e6110838d6438",
            "0x21851e73403e42f5320e1e0445e287b096e173faaa8f6ef1080a9015019b7ba3",
            "0x00000000000000000000000002b3d7aad00aefdb8f3fe1d5e3fdb7ed78cc41a3",
            "0x0000000000000000000000005fcbb6193b5dd9771f78e36b6811f3a05fbc684b"
          ],
          "data": "0x0000000000000000000000000000000000000000000000000000000000000bb8000000000000000000000000000000000000000000000000000000000000003c000000000000000000000000000000000000000000000000000000000000000000000000000000000000000000000000000000000002540be400000000000000fffffffffffffffffffffffffffffffffffffffffffffffffffffffffffcdf8d",
          "blockHash": "0xb9e9295f0725123fe5e9ecaa4c62829d9cc39a8de75a18cef97e9c143da1cf0a",
          "blockNumber": "0xa01859",
          "blockTimestamp": "0x69bec968",
          "transactionHash": "0x8616faea4b2609a6d81929887d4916ba6baa15e29f287591063eb37fe238bfa2",
          "transactionIndex": "0x48",
          "logIndex": "0x145",
          "removed": false
        },
        {
          "address": "0x429ba70129df741b2ca2a85bc3a2a3328e5c09b4",
          "topics": [
            "0xddf252ad1be2c89b69c2b068fc378daa952ba7f163c4a11628f55a4df523b3ef",
            "0x0000000000000000000000000000000000000000000000000000000000000000",
            "0x000000000000000000000000599cbb31cd468df8022502e69710b01ccf53efa4",
            "0x000000000000000000000000000000000000000000000000000000000000618e"
          ],
          "data": "0x",
          "blockHash": "0xb9e9295f0725123fe5e9ecaa4c62829d9cc39a8de75a18cef97e9c143da1cf0a",
          "blockNumber": "0xa01859",
          "blockTimestamp": "0x69bec968",
          "transactionHash": "0x8616faea4b2609a6d81929887d4916ba6baa15e29f287591063eb37fe238bfa2",
          "transactionIndex": "0x48",
          "logIndex": "0x146",
          "removed": false
        },
        {
          "address": "0xe03a1074c86cfedd5c142c4f04f1a1536e203543",
          "topics": [
            "0xf208f4912782fd25c7f114ca3723a2d5dd6f3bcc3ac8db5af63baa85f711d5ec",
            "0x21851e73403e42f5320e1e0445e287b096e173faaa8f6ef1080a9015019b7ba3",
            "0x000000000000000000000000429ba70129df741b2ca2a85bc3a2a3328e5c09b4"
          ],
          "data": "0xfffffffffffffffffffffffffffffffffffffffffffffffffffffffffffc2fd4fffffffffffffffffffffffffffffffffffffffffffffffffffffffffffd8f6400000000000000000000000000000000000000000000001586dd89ac65f5f3a6000000000000000000000000000000000000000000000000000000000000618e",
          "blockHash": "0xb9e9295f0725123fe5e9ecaa4c62829d9cc39a8de75a18cef97e9c143da1cf0a",
          "blockNumber": "0xa01859",
          "blockTimestamp": "0x69bec968",
          "transactionHash": "0x8616faea4b2609a6d81929887d4916ba6baa15e29f287591063eb37fe238bfa2",
          "transactionIndex": "0x48",
          "logIndex": "0x147",
          "removed": false
        },
        {
          "address": "0x02b3d7aad00aefdb8f3fe1d5e3fdb7ed78cc41a3",
          "topics": [
            "0xddf252ad1be2c89b69c2b068fc378daa952ba7f163c4a11628f55a4df523b3ef",
            "0x000000000000000000000000599cbb31cd468df8022502e69710b01ccf53efa4",
            "0x000000000000000000000000e03a1074c86cfedd5c142c4f04f1a1536e203543"
          ],
          "data": "0x0000000000000000000000000000000000000000000845951614014849fff445",
          "blockHash": "0xb9e9295f0725123fe5e9ecaa4c62829d9cc39a8de75a18cef97e9c143da1cf0a",
          "blockNumber": "0xa01859",
          "blockTimestamp": "0x69bec968",
          "transactionHash": "0x8616faea4b2609a6d81929887d4916ba6baa15e29f287591063eb37fe238bfa2",
          "transactionIndex": "0x48",
          "logIndex": "0x148",
          "removed": false
        },
        {
          "address": "0x5fcbb6193b5dd9771f78e36b6811f3a05fbc684b",
          "topics": [
            "0xddf252ad1be2c89b69c2b068fc378daa952ba7f163c4a11628f55a4df523b3ef",
            "0x000000000000000000000000599cbb31cd468df8022502e69710b01ccf53efa4",
            "0x000000000000000000000000e03a1074c86cfedd5c142c4f04f1a1536e203543"
          ],
          "data": "0x000000000000000000000000000000000000000000000000002cd57928ac39b9",
          "blockHash": "0xb9e9295f0725123fe5e9ecaa4c62829d9cc39a8de75a18cef97e9c143da1cf0a",
          "blockNumber": "0xa01859",
          "blockTimestamp": "0x69bec968",
          "transactionHash": "0x8616faea4b2609a6d81929887d4916ba6baa15e29f287591063eb37fe238bfa2",
          "transactionIndex": "0x48",
          "logIndex": "0x149",
          "removed": false
        }
      ],
      "logsBloom": "0x00000000000000000000001000000000000000000000000000040000080000000000000010000040080000000000000000000100000080000000000000000000000000800000000000040008000000000000000004000000000000000001000000000000020000000000000080000800008000000000100000000810000000000000002001000008008011000000000000000001001000000001000000204000000004000000001000000000000000000000000000400000000000400000000000000002000000000000000000000000000000000000000000001000000020001000000004000041080000000000000004000000000000040000000000000000",
      "type": "0x2",
      "transactionHash": "0x8616faea4b2609a6d81929887d4916ba6baa15e29f287591063eb37fe238bfa2",
      "transactionIndex": "0x48",
      "blockHash": "0xb9e9295f0725123fe5e9ecaa4c62829d9cc39a8de75a18cef97e9c143da1cf0a",
      "blockNumber": "0xa01859",
      "gasUsed": "0x72e72",
      "effectiveGasPrice": "0xf4256",
      "from": "0x599cbb31cd468df8022502e69710b01ccf53efa4",
      "to": "0x429ba70129df741b2ca2a85bc3a2a3328e5c09b4",
      "contractAddress": null
    }
  ],
  "libraries": [],
  "pending": [],
  "returns": {},
  "timestamp": 1774111083086,
  "chain": 11155111,
  "commit": null
}