{
  "transactions": [
    {
      "hash": "0x296a48b74772f850243f1a823ab9102ca906d0a67d791c503c17548400239938",
      "transactionType": "CALL",
      "contractName": null,
      "contractAddress": "0x02b3d7aad00aefdb8f3fe1d5e3fdb7ed78cc41a3",
      "function": "approve(address,uint256)",
      "arguments": [
        "0x000000000022D473030F116dDEE9F6B43aC78BA3",
        "115792089237316195423570985008687907853269984665640564039457584007913129639935"
      ],
      "transaction": {
        "from": "0x599cbb31cd468df8022502e69710b01ccf53efa4",
        "to": "0x02b3d7aad00aefdb8f3fe1d5e3fdb7ed78cc41a3",
        "gas": "0x9330",
        "value": "0x0",
        "input": "0x095ea7b3000000000000000000000000000000000022d473030f116ddee9f6b43ac78ba3ffffffffffffffffffffffffffffffffffffffffffffffffffffffffffffffff",
        "nonce": "0x41",
        "chainId": "0xaa36a7"
      },
      "additionalContracts": [],
      "isFixedGasLimit": false
    },
    {
      "hash": "0xfe223bca088459fe2fd4ac371ddf295a07457f312c92fc7cf2eba87aa1f42ee2",
      "transactionType": "CALL",
      "contractName": null,
      "contractAddress": "0x000000000022d473030f116ddee9f6b43ac78ba3",
      "function": "approve(address,address,uint160,uint48)",
      "arguments": [
        "0x02b3d7aAd00aEFDB8f3fe1d5E3fdB7ed78CC41A3",
        "0x429ba70129df741B2Ca2a85BC3A2a3328e5c09b4",
        "1461501637330902918203684832716283019655932542975",
        "281474976710655"
      ],
      "transaction": {
        "from": "0x599cbb31cd468df8022502e69710b01ccf53efa4",
        "to": "0x000000000022d473030f116ddee9f6b43ac78ba3",
        "gas": "0x96a0",
        "value": "0x0",
        "input": "0x87517c4500000000000000000000000002b3d7aad00aefdb8f3fe1d5e3fdb7ed78cc41a3000000000000000000000000429ba70129df741b2ca2a85bc3a2a3328e5c09b4000000000000000000000000ffffffffffffffffffffffffffffffffffffffff0000000000000000000000000000000000000000000000000000ffffffffffff",
        "nonce": "0x42",
        "chainId": "0xaa36a7"
      },
      "additionalContracts": [],
      "isFixedGasLimit": false
    },
    {
      "hash": "0x0001d06467bc19fe7946274f2a238d524236c614b8bffca203a0c0a87721186d",
      "transactionType": "CALL",
      "contractName": null,
      "contractAddress": "0x7cc9c9f858ae836361a408b66d1198652fcb07b4",
      "function": "approve(address,uint256)",
      "arguments": [
        "0x000000000022D473030F116dDEE9F6B43aC78BA3",
        "115792089237316195423570985008687907853269984665640564039457584007913129639935"
      ],
      "transaction": {
        "from": "0x599cbb31cd468df8022502e69710b01ccf53efa4",
        "to": "0x7cc9c9f858ae836361a408b66d1198652fcb07b4",
        "gas": "0x9330",
        "value": "0x0",
        "input": "0x095ea7b3000000000000000000000000000000000022d473030f116ddee9f6b43ac78ba3ffffffffffffffffffffffffffffffffffffffffffffffffffffffffffffffff",
        "nonce": "0x43",
        "chainId": "0xaa36a7"
      },
      "additionalContracts": [],
      "isFixedGasLimit": false
    },
    {
      "hash": "0x74ec037264082136b3f0c3d361521588b7a86c2c5df40155fe262822ecbf08a7",
      "transactionType": "CALL",
      "contractName": null,
      "contractAddress": "0x000000000022d473030f116ddee9f6b43ac78ba3",
      "function": "approve(address,address,uint160,uint48)",
      "arguments": [
        "0x7Cc9c9F858Ae836361a408B66d1198652fCb07B4",
        "0x429ba70129df741B2Ca2a85BC3A2a3328e5c09b4",
        "1461501637330902918203684832716283019655932542975",
        "281474976710655"
      ],
      "transaction": {
        "from": "0x599cbb31cd468df8022502e69710b01ccf53efa4",
        "to": "0x000000000022d473030f116ddee9f6b43ac78ba3",
        "gas": "0x96a0",
        "value": "0x0",
        "input": "0x87517c450000000000000000000000007cc9c9f858ae836361a408b66d1198652fcb07b4000000000000000000000000429ba70129df741b2ca2a85bc3a2a3328e5c09b4000000000000000000000000ffffffffffffffffffffffffffffffffffffffff0000000000000000000000000000000000000000000000000000ffffffffffff",
        "nonce": "0x44",
        "chainId": "0xaa36a7"
      },
      "additionalContracts": [],
      "isFixedGasLimit": false
    },
    {
      "hash": "0x022619d2ef8db0b536fcca9b4ca6430a8f0d0d0510639448e4916bb3a9050fcb",
      "transactionType": "CALL",
      "contractName": null,
      "contractAddress": "0x429ba70129df741b2ca2a85bc3a2a3328e5c09b4",
      "function": "multicall(bytes[])",
      "arguments": [
        "[0xf702040500000000000000000000000002b3d7aad00aefdb8f3fe1d5e3fdb7ed78cc41a30000000000000000000000007cc9c9f858ae836361a408b66d1198652fcb07b40000000000000000000000000000000000000000000000000000000000000bb8000000000000000000000000000000000000000000000000000000000000003c0000000000000000000000000000000000000000000000000000000000000000000000000000000000000000000000000000002da69e079b4228c05c4e0b0c4600000000000000000000000000000000000000000000000000000000000000e00000000000000000000000000000000000000000000000000000000000000000, 0xdd46508f00000000000000000000000000000000000000000000000000000000000000400000000000000000000000000000000000000000000000000000000069bfa4d40000000000000000000000000000000000000000000000000000000000000400000000000000000000000000000000000000000000000000000000000000004000000000000000000000000000000000000000000000000000000000000000800000000000000000000000000000000000000000000000000000000000000004020d14140000000000000000000000000000000000000000000000000000000000000000000000000000000000000000000000000000000000000000000000040000000000000000000000000000000000000000000000000000000000000080000000000000000000000000000000000000000000000000000000000000024000000000000000000000000000000000000000000000000000000000000002a0000000000000000000000000000000000000000000000000000000000000030000000000000000000000000000000000000000000000000000000000000001a000000000000000000000000002b3d7aad00aefdb8f3fe1d5e3fdb7ed78cc41a30000000000000000000000007cc9c9f858ae836361a408b66d1198652fcb07b40000000000000000000000000000000000000000000000000000000000000bb8000000000000000000000000000000000000000000000000000000000000003c0000000000000000000000000000000000000000000000000000000000000000fffffffffffffffffffffffffffffffffffffffffffffffffffffffffffe6b78000000000000000000000000000000000000000000000000000000000003e97c00000000000000000000000000000000000000000000000be05c3bd8a4d730b300000000000000000000000000000000000000000010f0cf064dd5920000000100000000000000000000000000000000000000000000021e19e0c9bab2400001000000000000000000000000599cbb31cd468df8022502e69710b01ccf53efa400000000000000000000000000000000000000000000000000000000000001800000000000000000000000000000000000000000000000000000000000000000000000000000000000000000000000000000000000000000000000000000004000000000000000000000000002b3d7aad00aefdb8f3fe1d5e3fdb7ed78cc41a30000000000000000000000007cc9c9f858ae836361a408b66d1198652fcb07b4000000000000000000000000000000000000000000000000000000000000004000000000000000000000000002b3d7aad00aefdb8f3fe1d5e3fdb7ed78cc41a3000000000000000000000000599cbb31cd468df8022502e69710b01ccf53efa400000000000000000000000000000000000000000000000000000000000000400000000000000000000000007cc9c9f858ae836361a408b66d1198652fcb07b4000000000000000000000000599cbb31cd468df8022502e69710b01ccf53efa4]"
      ],
      "transaction": {
        "from": "0x599cbb31cd468df8022502e69710b01ccf53efa4",
        "to": "0x429ba70129df741b2ca2a85bc3a2a3328e5c09b4",
        "gas": "0x4d787",
        "value": "0x0",
        "input": "0xac9650d800000000000000000000000000000000000000000000000000000000000000200000000000000000000000000000000000000000000000000000000000000002000000000000000000000000000000000000000000000000000000000000004000000000000000000000000000000000000000000000000000000000000001800000000000000000000000000000000000000000000000000000000000000104f702040500000000000000000000000002b3d7aad00aefdb8f3fe1d5e3fdb7ed78cc41a30000000000000000000000007cc9c9f858ae836361a408b66d1198652fcb07b40000000000000000000000000000000000000000000000000000000000000bb8000000000000000000000000000000000000000000000000000000000000003c0000000000000000000000000000000000000000000000000000000000000000000000000000000000000000000000000000002da69e079b4228c05c4e0b0c4600000000000000000000000000000000000000000000000000000000000000e00000000000000000000000000000000000000000000000000000000000000000000000000000000000000000000000000000000000000000000000000000000000000000000000000000000000000000000000000000000000000464dd46508f00000000000000000000000000000000000000000000000000000000000000400000000000000000000000000000000000000000000000000000000069bfa4d40000000000000000000000000000000000000000000000000000000000000400000000000000000000000000000000000000000000000000000000000000004000000000000000000000000000000000000000000000000000000000000000800000000000000000000000000000000000000000000000000000000000000004020d14140000000000000000000000000000000000000000000000000000000000000000000000000000000000000000000000000000000000000000000000040000000000000000000000000000000000000000000000000000000000000080000000000000000000000000000000000000000000000000000000000000024000000000000000000000000000000000000000000000000000000000000002a0000000000000000000000000000000000000000000000000000000000000030000000000000000000000000000000000000000000000000000000000000001a000000000000000000000000002b3d7aad00aefdb8f3fe1d5e3fdb7ed78cc41a30000000000000000000000007cc9c9f858ae836361a408b66d1198652fcb07b40000000000000000000000000000000000000000000000000000000000000bb8000000000000000000000000000000000000000000000000000000000000003c0000000000000000000000000000000000000000000000000000000000000000fffffffffffffffffffffffffffffffffffffffffffffffffffffffffffe6b78000000000000000000000000000000000000000000000000000000000003e97c00000000000000000000000000000000000000000000000be05c3bd8a4d730b300000000000000000000000000000000000000000010f0cf064dd5920000000100000000000000000000000000000000000000000000021e19e0c9bab2400001000000000000000000000000599cbb31cd468df8022502e69710b01ccf53efa400000000000000000000000000000000000000000000000000000000000001800000000000000000000000000000000000000000000000000000000000000000000000000000000000000000000000000000000000000000000000000000004000000000000000000000000002b3d7aad00aefdb8f3fe1d5e3fdb7ed78cc41a30000000000000000000000007cc9c9f858ae836361a408b66d1198652fcb07b4000000000000000000000000000000000000000000000000000000000000004000000000000000000000000002b3d7aad00aefdb8f3fe1d5e3fdb7ed78cc41a3000000000000000000000000599cbb31cd468df8022502e69710b01ccf53efa400000000000000000000000000000000000000000000000000000000000000400000000000000000000000007cc9c9f858ae836361a408b66d1198652fcb07b4000000000000000000000000599cbb31cd468df8022502e69710b01ccf53efa400000000000000000000000000000000000000000000000000000000",
        "nonce": "0x45",
        "chainId": "0xaa36a7"
      },
      "additionalContracts": [],
      "isFixedGasLimit": false
    }
  ],
  "receipts": [
    {
      "status": "0x1",
      "cumulativeGasUsed": "0x163a5de",
      "logs": [
        {
          "address": "0x02b3d7aad00aefdb8f3fe1d5e3fdb7ed78cc41a3",
          "topics": [
            "0x8c5be1e5ebec7d5bd14f71427d1e84f3dd0314c0f7b2291e5b200ac8c7c3b925",
            "0x000000000000000000000000599cbb31cd468df8022502e69710b01ccf53efa4",
            "0x000000000000000000000000000000000022d473030f116ddee9f6b43ac78ba3"
          ],
          "data": "0xffffffffffffffffffffffffffffffffffffffffffffffffffffffffffffffff",
          "blockHash": "0xa01d9146988c483ffd742f5d45f49c5eb68d981939a8f11e49824bba098f1748",
          "blockNumber": "0xa028f4",
          "blockTimestamp": "0x69bf9718",
          "transactionHash": "0xfe223bca088459fe2fd4ac371ddf295a07457f312c92fc7cf2eba87aa1f42ee2",
          "transactionIndex": "0x81",
          "logIndex": "0x2ae",
          "removed": false
        }
      ],
      "logsBloom": "0x00000000000000000000000000000000000000000000000000000000000000000000000000000000000000000000000000000000800000000000000000200000000000800000000000004000000000000000000000000800000000000001000000000000000000000000000000000000008000000000000000000000000000000000002000000000008000000000000000000000000000000000000000000000020000000000000000000000000000000000000000000000000000000000000000000000000000000000000000000000000000000000000000000000000000000010000000000000000000000000000000000000000000040000000000000000",
      "type": "0x2",
      "transactionHash": "0xfe223bca088459fe2fd4ac371ddf295a07457f312c92fc7cf2eba87aa1f42ee2",
      "transactionIndex": "0x81",
      "blockHash": "0xa01d9146988c483ffd742f5d45f49c5eb68d981939a8f11e49824bba098f1748",
      "blockNumber": "0xa028f4",
      "gasUsed": "0x6a90",
      "effectiveGasPrice": "0xf42da",
      "from": "0x599cbb31cd468df8022502e69710b01ccf53efa4",
      "to": "0x02b3d7aad00aefdb8f3fe1d5e3fdb7ed78cc41a3",
      "contractAddress": null
    },
    {
      "status": "0x1",
      "cumulativeGasUsed": "0x1823b50",
      "logs": [
        {
          "address": "0x000000000022d473030f116ddee9f6b43ac78ba3",
          "topics": [
            "0xda9fa7c1b00402c17d0161b249b1ab8bbec047c5a52207b9c112deffd817036b",
            "0x000000000000000000000000599cbb31cd468df8022502e69710b01ccf53efa4",
            "0x00000000000000000000000002b3d7aad00aefdb8f3fe1d5e3fdb7ed78cc41a3",
            "0x000000000000000000000000429ba70129df741b2ca2a85bc3a2a3328e5c09b4"
          ],
          "data": "0x000000000000000000000000ffffffffffffffffffffffffffffffffffffffff0000000000000000000000000000000000000000000000000000ffffffffffff",
          "blockHash": "0xa01d9146988c483ffd742f5d45f49c5eb68d981939a8f11e49824bba098f1748",
          "blockNumber": "0xa028f4",
          "blockTimestamp": "0x69bf9718",
          "transactionHash": "0x0001d06467bc19fe7946274f2a238d524236c614b8bffca203a0c0a87721186d",
          "transactionIndex": "0x8a",
          "logIndex": "0x2b8",
          "removed": false
        }
      ],
      "logsBloom": "0x00010000000000000000000000000000000000000000000000000000000000000000000000000040080000000000000000000000000000000000000000080000000000800000000000000000000000000000000000000000000000000001000000000000000000000000000000000000000000000000000000000800000000000020002000000000000000000000000000000000001000000001000000000000000000000000000000000000000000000000000000000000000000080000000000000000000000000000000000000000000000000000000040000000000000000000000000000040000000000000000000000000000000000000000000000400",
      "type": "0x2",
      "transactionHash": "0x0001d06467bc19fe7946274f2a238d524236c614b8bffca203a0c0a87721186d",
      "transactionIndex": "0x8a",
      "blockHash": "0xa01d9146988c483ffd742f5d45f49c5eb68d981939a8f11e49824bba098f1748",
      "blockNumber": "0xa028f4",
      "gasUsed": "0x6d0e",
      "effectiveGasPrice": "0xf42da",
      "from": "0x599cbb31cd468df8022502e69710b01ccf53efa4",
      "to": "0x000000000022d473030f116ddee9f6b43ac78ba3",
      "contractAddress": null
    },
    {
      "status": "0x1",
      "cumulativeGasUsed": "0x182a5e0",
      "logs": [
        {
          "address": "0x7cc9c9f858ae836361a408b66d1198652fcb07b4",
          "topics": [
            "0x8c5be1e5ebec7d5bd14f71427d1e84f3dd0314c0f7b2291e5b200ac8c7c3b925",
            "0x000000000000000000000000599cbb31cd468df8022502e69710b01ccf53efa4",
            "0x000000000000000000000000000000000022d473030f116ddee9f6b43ac78ba3"
          ],
          "data": "0xffffffffffffffffffffffffffffffffffffffffffffffffffffffffffffffff",
          "blockHash": "0xa01d9146988c483ffd742f5d45f49c5eb68d981939a8f11e49824bba098f1748",
          "blockNumber": "0xa028f4",
          "blockTimestamp": "0x69bf9718",
          "transactionHash": "0x296a48b74772f850243f1a823ab9102ca906d0a67d791c503c17548400239938",
          "transactionIndex": "0x8b",
          "logIndex": "0x2b9",
          "removed": false
        }
      ],
      "logsBloom": "0x00000000000000000000000000000000000000000000000000000000000000000000000000000000000000000000000000000000840000000000000000200000000000800000040000004000000000000000000000000800000000000001000000000000000000000000000000000000000000000000000000000000000000000000002000000000000000000000000000000000000000000000000000000004020000000000000000000000000000000000000000000000000000000000000000000000000000000000000000000000000000000000000000000000000000000010000000000000000000000000000000000000000000000000000000000000",
      "type": "0x2",
      "transactionHash": "0x296a48b74772f850243f1a823ab9102ca906d0a67d791c503c17548400239938",
      "transactionIndex": "0x8b",
      "blockHash": "0xa01d9146988c483ffd742f5d45f49c5eb68d981939a8f11e49824bba098f1748",
      "blockNumber": "0xa028f4",
      "gasUsed": "0x6a90",
      "effectiveGasPrice": "0xf42da",
      "from": "0x599cbb31cd468df8022502e69710b01ccf53efa4",
      "to": "0x7cc9c9f858ae836361a408b66d1198652fcb07b4",
      "contractAddress": null
    },
    {
      "status": "0x1",
      "cumulativeGasUsed": "0x18312ee",
      "logs": [
        {
          "address": "0x000000000022d473030f116ddee9f6b43ac78ba3",
          "topics": [
            "0xda9fa7c1b00402c17d0161b249b1ab8bbec047c5a52207b9c112deffd817036b",
            "0x000000000000000000000000599cbb31cd468df8022502e69710b01ccf53efa4",
            "0x0000000000000000000000007cc9c9f858ae836361a408b66d1198652fcb07b4",
            "0x000000000000000000000000429ba70129df741b2ca2a85bc3a2a3328e5c09b4"
          ],
          "data": "0x000000000000000000000000ffffffffffffffffffffffffffffffffffffffff0000000000000000000000000000000000000000000000000000ffffffffffff",
          "blockHash": "0xa01d9146988c483ffd742f5d45f49c5eb68d981939a8f11e49824bba098f1748",
          "blockNumber": "0xa028f4",
          "blockTimestamp": "0x69bf9718",
          "transactionHash": "0x74ec037264082136b3f0c3d361521588b7a86c2c5df40155fe262822ecbf08a7",
          "transactionIndex": "0x8c",
          "logIndex": "0x2ba",
          "removed": false
        }
      ],
      "logsBloom": "0x00010000000000000000002000000000000000000000000000000200000000000000000000000040080000000000000000000000000000000000000000080000000000800000000000000000000000000000000000000000000000000001000000000000000000000000000000000000000000000000000000000800000000000020002000000000000000000000000000000000000008000000000000000000000000000000000000000000000000000000000000000000000000080000000000000000000000000000000000000000000000000000000040000000000000000000000000000000000000000000000000000000000000000000000000000400",
      "type": "0x2",
      "transactionHash": "0x74ec037264082136b3f0c3d361521588b7a86c2c5df40155fe262822ecbf08a7",
      "transactionIndex": "0x8c",
      "blockHash": "0xa01d9146988c483ffd742f5d45f49c5eb68d981939a8f11e49824bba098f1748",
      "blockNumber": "0xa028f4",
      "gasUsed": "0x6d0e",
      "effectiveGasPrice": "0xf42da",
      "from": "0x599cbb31cd468df8022502e69710b01ccf53efa4",
      "to": "0x000000000022d473030f116ddee9f6b43ac78ba3",
      "contractAddress": null
    },
    {
      "status": "0x1",
      "cumulativeGasUsed": "0x1866279",
      "logs": [
        {
          "address": "0x429ba70129df741b2ca2a85bc3a2a3328e5c09b4",
          "topics": [
            "0xddf252ad1be2c89b69c2b068fc378daa952ba7f163c4a11628f55a4df523b3ef",
            "0x0000000000000000000000000000000000000000000000000000000000000000",
            "0x000000000000000000000000599cbb31cd468df8022502e69710b01ccf53efa4",
            "0x00000000000000000000000000000000000000000000000000000000000061a0"
          ],
          "data": "0x",
          "blockHash": "0xa01d9146988c483ffd742f5d45f49c5eb68d981939a8f11e49824bba098f1748",
          "blockNumber": "0xa028f4",
          "blockTimestamp": "0x69bf9718",
          "transactionHash": "0x022619d2ef8db0b536fcca9b4ca6430a8f0d0d0510639448e4916bb3a9050fcb",
          "transactionIndex": "0x8d",
          "logIndex": "0x2bb",
          "removed": false
        },
        {
          "address": "0xe03a1074c86cfedd5c142c4f04f1a1536e203543",
          "topics": [
            "0xf208f4912782fd25c7f114ca3723a2d5dd6f3bcc3ac8db5af63baa85f711d5ec",
            "0xdb7e80f725cb78c8885dee26a7d79a6de78de4eacab362b8859b639bac93c549",
            "0x000000000000000000000000429ba70129df741b2ca2a85bc3a2a3328e5c09b4"
          ],
          "data": "0xfffffffffffffffffffffffffffffffffffffffffffffffffffffffffffe6b78000000000000000000000000000000000000000000000000000000000003e97c00000000000000000000000000000000000000000000000be05c3bd8a4d730b300000000000000000000000000000000000000000000000000000000000061a0",
          "blockHash": "0xa01d9146988c483ffd742f5d45f49c5eb68d981939a8f11e49824bba098f1748",
          "blockNumber": "0xa028f4",
          "blockTimestamp": "0x69bf9718",
          "transactionHash": "0x022619d2ef8db0b536fcca9b4ca6430a8f0d0d0510639448e4916bb3a9050fcb",
          "transactionIndex": "0x8d",
          "logIndex": "0x2bc",
          "removed": false
        },
        {
          "address": "0x02b3d7aad00aefdb8f3fe1d5e3fdb7ed78cc41a3",
          "topics": [
            "0xddf252ad1be2c89b69c2b068fc378daa952ba7f163c4a11628f55a4df523b3ef",
            "0x000000000000000000000000599cbb31cd468df8022502e69710b01ccf53efa4",
            "0x000000000000000000000000e03a1074c86cfedd5c142c4f04f1a1536e203543"
          ],
          "data": "0x00000000000000000000000000000000000000000000083978d69b7d8de08b41",
          "blockHash": "0xa01d9146988c483ffd742f5d45f49c5eb68d981939a8f11e49824bba098f1748",
          "blockNumber": "0xa028f4",
          "blockTimestamp": "0x69bf9718",
          "transactionHash": "0x022619d2ef8db0b536fcca9b4ca6430a8f0d0d0510639448e4916bb3a9050fcb",
          "transactionIndex": "0x8d",
          "logIndex": "0x2bd",
          "removed": false
        }
      ],
      "logsBloom": "0x00000000000010000000001000000000000000000000000000000000080000000000000000000040080000000000000000000100000000000000000000000000000000800000000000000008000000000000000000000000000000000001000000010000020000000000000080000800008000000000100000000810000000000000002001000000008010000000000000000000000000080000000000000000000004000000000000000000000000000000000000400000004000000000000000000002000000000000000000000000000010000000000000001000000020001000000000000000000000000000000004000000000000040000000000000000",
      "type": "0x2",
      "transactionHash": "0x022619d2ef8db0b536fcca9b4ca6430a8f0d0d0510639448e4916bb3a9050fcb",
      "transactionIndex": "0x8d",
      "blockHash": "0xa01d9146988c483ffd742f5d45f49c5eb68d981939a8f11e49824bba098f1748",
      "blockNumber": "0xa028f4",
      "gasUsed": "0x34f8b",
      "effectiveGasPrice": "0xf42da",
      "from": "0x599cbb31cd468df8022502e69710b01ccf53efa4",
      "to": "0x429ba70129df741b2ca2a85bc3a2a3328e5c09b4",
      "contractAddress": null
    }
  ],
  "libraries": [],
  "pending": [],
  "returns": {},
  "timestamp": 1774163737423,
  "chain": 11155111,
  "commit": "3947a11"
}