{
  "transactions": [
    {
      "hash": "0x707649f83437f67c6dd347a6c8aa2b4ace167d577267a971b0a21e7c1da2042c",
      "transactionType": "CALL",
      "contractName": null,
      "contractAddress": "0x02b3d7aad00aefdb8f3fe1d5e3fdb7ed78cc41a3",
      "function": "approve(address,uint256)",
      "arguments": [
        "0x000000000022D473030F116dDEE9F6B43aC78BA3",
        "115792089237316195423570985008687907853269984665640564039457584007913129639935"
      ],
      "transaction": {
        "from": "0x599cbb31cd468df8022502e69710b01ccf53efa4",
        "to": "0x02b3d7aad00aefdb8f3fe1d5e3fdb7ed78cc41a3",
        "gas": "0x9330",
        "value": "0x0",
        "input": "0x095ea7b3000000000000000000000000000000000022d473030f116ddee9f6b43ac78ba3ffffffffffffffffffffffffffffffffffffffffffffffffffffffffffffffff",
        "nonce": "0x55",
        "chainId": "0xaa36a7"
      },
      "additionalContracts": [],
      "isFixedGasLimit": false
    },
    {
      "hash": "0xfd1483af6b406b6765fe913e581f0457ef30a14b9700b7d51bcc1e6737758305",
      "transactionType": "CALL",
      "contractName": null,
      "contractAddress": "0x000000000022d473030f116ddee9f6b43ac78ba3",
      "function": "approve(address,address,uint160,uint48)",
      "arguments": [
        "0x02b3d7aAd00aEFDB8f3fe1d5E3fdB7ed78CC41A3",
        "0x429ba70129df741B2Ca2a85BC3A2a3328e5c09b4",
        "1461501637330902918203684832716283019655932542975",
        "281474976710655"
      ],
      "transaction": {
        "from": "0x599cbb31cd468df8022502e69710b01ccf53efa4",
        "to": "0x000000000022d473030f116ddee9f6b43ac78ba3",
        "gas": "0x96a0",
        "value": "0x0",
        "input": "0x87517c4500000000000000000000000002b3d7aad00aefdb8f3fe1d5e3fdb7ed78cc41a3000000000000000000000000429ba70129df741b2ca2a85bc3a2a3328e5c09b4000000000000000000000000ffffffffffffffffffffffffffffffffffffffff0000000000000000000000000000000000000000000000000000ffffffffffff",
        "nonce": "0x56",
        "chainId": "0xaa36a7"
      },
      "additionalContracts": [],
      "isFixedGasLimit": false
    },
    {
      "hash": "0x7b06721e44b419a2a77440f876b6c921e4d0ed99135bf169b4b3ed154764a726",
      "transactionType": "CALL",
      "contractName": null,
      "contractAddress": "0x7cc9c9f858ae836361a408b66d1198652fcb07b4",
      "function": "approve(address,uint256)",
      "arguments": [
        "0x000000000022D473030F116dDEE9F6B43aC78BA3",
        "115792089237316195423570985008687907853269984665640564039457584007913129639935"
      ],
      "transaction": {
        "from": "0x599cbb31cd468df8022502e69710b01ccf53efa4",
        "to": "0x7cc9c9f858ae836361a408b66d1198652fcb07b4",
        "gas": "0x9330",
        "value": "0x0",
        "input": "0x095ea7b3000000000000000000000000000000000022d473030f116ddee9f6b43ac78ba3ffffffffffffffffffffffffffffffffffffffffffffffffffffffffffffffff",
        "nonce": "0x57",
        "chainId": "0xaa36a7"
      },
      "additionalContracts": [],
      "isFixedGasLimit": false
    },
    {
      "hash": "0xe6abc9cc358a7db6ea9d72c9207b1b3ed996b46109b2a72462c15cef264c8cd8",
      "transactionType": "CALL",
      "contractName": null,
      "contractAddress": "0x000000000022d473030f116ddee9f6b43ac78ba3",
      "function": "approve(address,address,uint160,uint48)",
      "arguments": [
        "0x7Cc9c9F858Ae836361a408B66d1198652fCb07B4",
        "0x429ba70129df741B2Ca2a85BC3A2a3328e5c09b4",
        "1461501637330902918203684832716283019655932542975",
        "281474976710655"
      ],
      "transaction": {
        "from": "0x599cbb31cd468df8022502e69710b01ccf53efa4",
        "to": "0x000000000022d473030f116ddee9f6b43ac78ba3",
        "gas": "0x96a0",
        "value": "0x0",
        "input": "0x87517c450000000000000000000000007cc9c9f858ae836361a408b66d1198652fcb07b4000000000000000000000000429ba70129df741b2ca2a85bc3a2a3328e5c09b4000000000000000000000000ffffffffffffffffffffffffffffffffffffffff0000000000000000000000000000000000000000000000000000ffffffffffff",
        "nonce": "0x58",
        "chainId": "0xaa36a7"
      },
      "additionalContracts": [],
      "isFixedGasLimit": false
    },
    {
      "hash": "0xab6130e5ba713624ecfd42eed718ef9a1a5c0f49404c3b5b4a1c6c4a1b86495d",
      "transactionType": "CALL",
      "contractName": null,
      "contractAddress": "0x429ba70129df741b2ca2a85bc3a2a3328e5c09b4",
      "function": "multicall(bytes[])",
      "arguments": [
        "[0xf702040500000000000000000000000002b3d7aad00aefdb8f3fe1d5e3fdb7ed78cc41a30000000000000000000000007cc9c9f858ae836361a408b66d1198652fcb07b40000000000000000000000000000000000000000000000000000000000000bb8000000000000000000000000000000000000000000000000000000000000001e0000000000000000000000000000000000000000000000000000000000000000000000000000000000000000000000000000002da69e079b4228c05c4e0b0c4600000000000000000000000000000000000000000000000000000000000000e00000000000000000000000000000000000000000000000000000000000000000, 0xdd46508f00000000000000000000000000000000000000000000000000000000000000400000000000000000000000000000000000000000000000000000000069bfb20c0000000000000000000000000000000000000000000000000000000000000400000000000000000000000000000000000000000000000000000000000000004000000000000000000000000000000000000000000000000000000000000000800000000000000000000000000000000000000000000000000000000000000004020d14140000000000000000000000000000000000000000000000000000000000000000000000000000000000000000000000000000000000000000000000040000000000000000000000000000000000000000000000000000000000000080000000000000000000000000000000000000000000000000000000000000024000000000000000000000000000000000000000000000000000000000000002a0000000000000000000000000000000000000000000000000000000000000030000000000000000000000000000000000000000000000000000000000000001a000000000000000000000000002b3d7aad00aefdb8f3fe1d5e3fdb7ed78cc41a30000000000000000000000007cc9c9f858ae836361a408b66d1198652fcb07b40000000000000000000000000000000000000000000000000000000000000bb8000000000000000000000000000000000000000000000000000000000000001e0000000000000000000000000000000000000000000000000000000000000000000000000000000000000000000000000000000000000000000000000000efe200000000000000000000000000000000000000000000000000000000000165120000000000000000000000000000000000000000000000167e10793a98b5261e00000000000000000000000000000000000000000010f0cf064dd5920000000100000000000000000000000000000000000000000000021e19e0c9bab2400001000000000000000000000000599cbb31cd468df8022502e69710b01ccf53efa400000000000000000000000000000000000000000000000000000000000001800000000000000000000000000000000000000000000000000000000000000000000000000000000000000000000000000000000000000000000000000000004000000000000000000000000002b3d7aad00aefdb8f3fe1d5e3fdb7ed78cc41a30000000000000000000000007cc9c9f858ae836361a408b66d1198652fcb07b4000000000000000000000000000000000000000000000000000000000000004000000000000000000000000002b3d7aad00aefdb8f3fe1d5e3fdb7ed78cc41a3000000000000000000000000599cbb31cd468df8022502e69710b01ccf53efa400000000000000000000000000000000000000000000000000000000000000400000000000000000000000007cc9c9f858ae836361a408b66d1198652fcb07b4000000000000000000000000599cbb31cd468df8022502e69710b01ccf53efa4]"
      ],
      "transaction": {
        "from": "0x599cbb31cd468df8022502e69710b01ccf53efa4",
        "to": "0x429ba70129df741b2ca2a85bc3a2a3328e5c09b4",
        "gas": "0x5a6c9",
        "value": "0x0",
        "input": "0xac9650d800000000000000000000000000000000000000000000000000000000000000200000000000000000000000000000000000000000000000000000000000000002000000000000000000000000000000000000000000000000000000000000004000000000000000000000000000000000000000000000000000000000000001800000000000000000000000000000000000000000000000000000000000000104f702040500000000000000000000000002b3d7aad00aefdb8f3fe1d5e3fdb7ed78cc41a30000000000000000000000007cc9c9f858ae836361a408b66d1198652fcb07b40000000000000000000000000000000000000000000000000000000000000bb8000000000000000000000000000000000000000000000000000000000000001e0000000000000000000000000000000000000000000000000000000000000000000000000000000000000000000000000000002da69e079b4228c05c4e0b0c4600000000000000000000000000000000000000000000000000000000000000e00000000000000000000000000000000000000000000000000000000000000000000000000000000000000000000000000000000000000000000000000000000000000000000000000000000000000000000000000000000000000464dd46508f00000000000000000000000000000000000000000000000000000000000000400000000000000000000000000000000000000000000000000000000069bfb20c0000000000000000000000000000000000000000000000000000000000000400000000000000000000000000000000000000000000000000000000000000004000000000000000000000000000000000000000000000000000000000000000800000000000000000000000000000000000000000000000000000000000000004020d14140000000000000000000000000000000000000000000000000000000000000000000000000000000000000000000000000000000000000000000000040000000000000000000000000000000000000000000000000000000000000080000000000000000000000000000000000000000000000000000000000000024000000000000000000000000000000000000000000000000000000000000002a0000000000000000000000000000000000000000000000000000000000000030000000000000000000000000000000000000000000000000000000000000001a000000000000000000000000002b3d7aad00aefdb8f3fe1d5e3fdb7ed78cc41a30000000000000000000000007cc9c9f858ae836361a408b66d1198652fcb07b40000000000000000000000000000000000000000000000000000000000000bb8000000000000000000000000000000000000000000000000000000000000001e0000000000000000000000000000000000000000000000000000000000000000000000000000000000000000000000000000000000000000000000000000efe200000000000000000000000000000000000000000000000000000000000165120000000000000000000000000000000000000000000000167e10793a98b5261e00000000000000000000000000000000000000000010f0cf064dd5920000000100000000000000000000000000000000000000000000021e19e0c9bab2400001000000000000000000000000599cbb31cd468df8022502e69710b01ccf53efa400000000000000000000000000000000000000000000000000000000000001800000000000000000000000000000000000000000000000000000000000000000000000000000000000000000000000000000000000000000000000000000004000000000000000000000000002b3d7aad00aefdb8f3fe1d5e3fdb7ed78cc41a30000000000000000000000007cc9c9f858ae836361a408b66d1198652fcb07b4000000000000000000000000000000000000000000000000000000000000004000000000000000000000000002b3d7aad00aefdb8f3fe1d5e3fdb7ed78cc41a3000000000000000000000000599cbb31cd468df8022502e69710b01ccf53efa400000000000000000000000000000000000000000000000000000000000000400000000000000000000000007cc9c9f858ae836361a408b66d1198652fcb07b4000000000000000000000000599cbb31cd468df8022502e69710b01ccf53efa400000000000000000000000000000000000000000000000000000000",
        "nonce": "0x59",
        "chainId": "0xaa36a7"
      },
      "additionalContracts": [],
      "isFixedGasLimit": false
    }
  ],
  "receipts": [
    {
      "status": "0x1",
      "cumulativeGasUsed": "0xa078f5",
      "logs": [
        {
          "address": "0x02b3d7aad00aefdb8f3fe1d5e3fdb7ed78cc41a3",
          "topics": [
            "0x8c5be1e5ebec7d5bd14f71427d1e84f3dd0314c0f7b2291e5b200ac8c7c3b925",
            "0x000000000000000000000000599cbb31cd468df8022502e69710b01ccf53efa4",
            "0x000000000000000000000000000000000022d473030f116ddee9f6b43ac78ba3"
          ],
          "data": "0xffffffffffffffffffffffffffffffffffffffffffffffffffffffffffffffff",
          "blockHash": "0xe71d50589020126a9d4258b3ce4c7dbe447b0afd11e189acd624d2c718690516",
          "blockNumber": "0xa02a06",
          "blockTimestamp": "0x69bfa438",
          "transactionHash": "0xfd1483af6b406b6765fe913e581f0457ef30a14b9700b7d51bcc1e6737758305",
          "transactionIndex": "0x65",
          "logIndex": "0x1ce",
          "removed": false
        }
      ],
      "logsBloom": "0x00000000000000000000000000000000000000000000000000000000000000000000000000000000000000000000000000000000800000000000000000200000000000800000000000004000000000000000000000000800000000000001000000000000000000000000000000000000008000000000000000000000000000000000002000000000008000000000000000000000000000000000000000000000020000000000000000000000000000000000000000000000000000000000000000000000000000000000000000000000000000000000000000000000000000000010000000000000000000000000000000000000000000040000000000000000",
      "type": "0x2",
      "transactionHash": "0xfd1483af6b406b6765fe913e581f0457ef30a14b9700b7d51bcc1e6737758305",
      "transactionIndex": "0x65",
      "blockHash": "0xe71d50589020126a9d4258b3ce4c7dbe447b0afd11e189acd624d2c718690516",
      "blockNumber": "0xa02a06",
      "gasUsed": "0x6a90",
      "effectiveGasPrice": "0xf4268",
      "from": "0x599cbb31cd468df8022502e69710b01ccf53efa4",
      "to": "0x02b3d7aad00aefdb8f3fe1d5e3fdb7ed78cc41a3",
      "contractAddress": null
    },
    {
      "status": "0x1",
      "cumulativeGasUsed": "0xa0e603",
      "logs": [
        {
          "address": "0x000000000022d473030f116ddee9f6b43ac78ba3",
          "topics": [
            "0xda9fa7c1b00402c17d0161b249b1ab8bbec047c5a52207b9c112deffd817036b",
            "0x000000000000000000000000599cbb31cd468df8022502e69710b01ccf53efa4",
            "0x00000000000000000000000002b3d7aad00aefdb8f3fe1d5e3fdb7ed78cc41a3",
            "0x000000000000000000000000429ba70129df741b2ca2a85bc3a2a3328e5c09b4"
          ],
          "data": "0x000000000000000000000000ffffffffffffffffffffffffffffffffffffffff0000000000000000000000000000000000000000000000000000ffffffffffff",
          "blockHash": "0xe71d50589020126a9d4258b3ce4c7dbe447b0afd11e189acd624d2c718690516",
          "blockNumber": "0xa02a06",
          "blockTimestamp": "0x69bfa438",
          "transactionHash": "0x707649f83437f67c6dd347a6c8aa2b4ace167d577267a971b0a21e7c1da2042c",
          "transactionIndex": "0x66",
          "logIndex": "0x1cf",
          "removed": false
        }
      ],
      "logsBloom": "0x00010000000000000000000000000000000000000000000000000000000000000000000000000040080000000000000000000000000000000000000000080000000000800000000000000000000000000000000000000000000000000001000000000000000000000000000000000000000000000000000000000800000000000020002000000000000000000000000000000000001000000001000000000000000000000000000000000000000000000000000000000000000000080000000000000000000000000000000000000000000000000000000040000000000000000000000000000040000000000000000000000000000000000000000000000400",
      "type": "0x2",
      "transactionHash": "0x707649f83437f67c6dd347a6c8aa2b4ace167d577267a971b0a21e7c1da2042c",
      "transactionIndex": "0x66",
      "blockHash": "0xe71d50589020126a9d4258b3ce4c7dbe447b0afd11e189acd624d2c718690516",
      "blockNumber": "0xa02a06",
      "gasUsed": "0x6d0e",
      "effectiveGasPrice": "0xf4268",
      "from": "0x599cbb31cd468df8022502e69710b01ccf53efa4",
      "to": "0x000000000022d473030f116ddee9f6b43ac78ba3",
      "contractAddress": null
    },
    {
      "status": "0x1",
      "cumulativeGasUsed": "0xa15093",
      "logs": [
        {
          "address": "0x7cc9c9f858ae836361a408b66d1198652fcb07b4",
          "topics": [
            "0x8c5be1e5ebec7d5bd14f71427d1e84f3dd0314c0f7b2291e5b200ac8c7c3b925",
            "0x000000000000000000000000599cbb31cd468df8022502e69710b01ccf53efa4",
            "0x000000000000000000000000000000000022d473030f116ddee9f6b43ac78ba3"
          ],
          "data": "0xffffffffffffffffffffffffffffffffffffffffffffffffffffffffffffffff",
          "blockHash": "0xe71d50589020126a9d4258b3ce4c7dbe447b0afd11e189acd624d2c718690516",
          "blockNumber": "0xa02a06",
          "blockTimestamp": "0x69bfa438",
          "transactionHash": "0x7b06721e44b419a2a77440f876b6c921e4d0ed99135bf169b4b3ed154764a726",
          "transactionIndex": "0x67",
          "logIndex": "0x1d0",
          "removed": false
        }
      ],
      "logsBloom": "0x00000000000000000000000000000000000000000000000000000000000000000000000000000000000000000000000000000000840000000000000000200000000000800000040000004000000000000000000000000800000000000001000000000000000000000000000000000000000000000000000000000000000000000000002000000000000000000000000000000000000000000000000000000004020000000000000000000000000000000000000000000000000000000000000000000000000000000000000000000000000000000000000000000000000000000010000000000000000000000000000000000000000000000000000000000000",
      "type": "0x2",
      "transactionHash": "0x7b06721e44b419a2a77440f876b6c921e4d0ed99135bf169b4b3ed154764a726",
      "transactionIndex": "0x67",
      "blockHash": "0xe71d50589020126a9d4258b3ce4c7dbe447b0afd11e189acd624d2c718690516",
      "blockNumber": "0xa02a06",
      "gasUsed": "0x6a90",
      "effectiveGasPrice": "0xf4268",
      "from": "0x599cbb31cd468df8022502e69710b01ccf53efa4",
      "to": "0x7cc9c9f858ae836361a408b66d1198652fcb07b4",
      "contractAddress": null
    },
    {
      "status": "0x1",
      "cumulativeGasUsed": "0xa1bda1",
      "logs": [
        {
          "address": "0x000000000022d473030f116ddee9f6b43ac78ba3",
          "topics": [
            "0xda9fa7c1b00402c17d0161b249b1ab8bbec047c5a52207b9c112deffd817036b",
            "0x000000000000000000000000599cbb31cd468df8022502e69710b01ccf53efa4",
            "0x0000000000000000000000007cc9c9f858ae836361a408b66d1198652fcb07b4",
            "0x000000000000000000000000429ba70129df741b2ca2a85bc3a2a3328e5c09b4"
          ],
          "data": "0x000000000000000000000000ffffffffffffffffffffffffffffffffffffffff0000000000000000000000000000000000000000000000000000ffffffffffff",
          "blockHash": "0xe71d50589020126a9d4258b3ce4c7dbe447b0afd11e189acd624d2c718690516",
          "blockNumber": "0xa02a06",
          "blockTimestamp": "0x69bfa438",
          "transactionHash": "0xe6abc9cc358a7db6ea9d72c9207b1b3ed996b46109b2a72462c15cef264c8cd8",
          "transactionIndex": "0x68",
          "logIndex": "0x1d1",
          "removed": false
        }
      ],
      "logsBloom": "0x00010000000000000000002000000000000000000000000000000200000000000000000000000040080000000000000000000000000000000000000000080000000000800000000000000000000000000000000000000000000000000001000000000000000000000000000000000000000000000000000000000800000000000020002000000000000000000000000000000000000008000000000000000000000000000000000000000000000000000000000000000000000000080000000000000000000000000000000000000000000000000000000040000000000000000000000000000000000000000000000000000000000000000000000000000400",
      "type": "0x2",
      "transactionHash": "0xe6abc9cc358a7db6ea9d72c9207b1b3ed996b46109b2a72462c15cef264c8cd8",
      "transactionIndex": "0x68",
      "blockHash": "0xe71d50589020126a9d4258b3ce4c7dbe447b0afd11e189acd624d2c718690516",
      "blockNumber": "0xa02a06",
      "gasUsed": "0x6d0e",
      "effectiveGasPrice": "0xf4268",
      "from": "0x599cbb31cd468df8022502e69710b01ccf53efa4",
      "to": "0x000000000022d473030f116ddee9f6b43ac78ba3",
      "contractAddress": null
    },
    {
      "status": "0x1",
      "cumulativeGasUsed": "0xabea8a",
      "logs": [
        {
          "address": "0x429ba70129df741b2ca2a85bc3a2a3328e5c09b4",
          "topics": [
            "0xddf252ad1be2c89b69c2b068fc378daa952ba7f163c4a11628f55a4df523b3ef",
            "0x0000000000000000000000000000000000000000000000000000000000000000",
            "0x000000000000000000000000599cbb31cd468df8022502e69710b01ccf53efa4",
            "0x00000000000000000000000000000000000000000000000000000000000061a4"
          ],
          "data": "0x",
          "blockHash": "0xe71d50589020126a9d4258b3ce4c7dbe447b0afd11e189acd624d2c718690516",
          "blockNumber": "0xa02a06",
          "blockTimestamp": "0x69bfa438",
          "transactionHash": "0xab6130e5ba713624ecfd42eed718ef9a1a5c0f49404c3b5b4a1c6c4a1b86495d",
          "transactionIndex": "0x6a",
          "logIndex": "0x1d2",
          "removed": false
        },
        {
          "address": "0xe03a1074c86cfedd5c142c4f04f1a1536e203543",
          "topics": [
            "0xf208f4912782fd25c7f114ca3723a2d5dd6f3bcc3ac8db5af63baa85f711d5ec",
            "0x4b3f367e32b31c9f05e9f26343f6338f8f93aca60853eda0fbb58f6e4799d1d2",
            "0x000000000000000000000000429ba70129df741b2ca2a85bc3a2a3328e5c09b4"
          ],
          "data": "0x000000000000000000000000000000000000000000000000000000000000efe200000000000000000000000000000000000000000000000000000000000165120000000000000000000000000000000000000000000000167e10793a98b5261e00000000000000000000000000000000000000000000000000000000000061a4",
          "blockHash": "0xe71d50589020126a9d4258b3ce4c7dbe447b0afd11e189acd624d2c718690516",
          "blockNumber": "0xa02a06",
          "blockTimestamp": "0x69bfa438",
          "transactionHash": "0xab6130e5ba713624ecfd42eed718ef9a1a5c0f49404c3b5b4a1c6c4a1b86495d",
          "transactionIndex": "0x6a",
          "logIndex": "0x1d3",
          "removed": false
        },
        {
          "address": "0x02b3d7aad00aefdb8f3fe1d5e3fdb7ed78cc41a3",
          "topics": [
            "0xddf252ad1be2c89b69c2b068fc378daa952ba7f163c4a11628f55a4df523b3ef",
            "0x000000000000000000000000599cbb31cd468df8022502e69710b01ccf53efa4",
            "0x000000000000000000000000e03a1074c86cfedd5c142c4f04f1a1536e203543"
          ],
          "data": "0x0000000000000000000000000000000000000000000000004281d01031e62034",
          "blockHash": "0xe71d50589020126a9d4258b3ce4c7dbe447b0afd11e189acd624d2c718690516",
          "blockNumber": "0xa02a06",
          "blockTimestamp": "0x69bfa438",
          "transactionHash": "0xab6130e5ba713624ecfd42eed718ef9a1a5c0f49404c3b5b4a1c6c4a1b86495d",
          "transactionIndex": "0x6a",
          "logIndex": "0x1d4",
          "removed": false
        },
        {
          "address": "0x7cc9c9f858ae836361a408b66d1198652fcb07b4",
          "topics": [
            "0xddf252ad1be2c89b69c2b068fc378daa952ba7f163c4a11628f55a4df523b3ef",
            "0x000000000000000000000000599cbb31cd468df8022502e69710b01ccf53efa4",
            "0x000000000000000000000000e03a1074c86cfedd5c142c4f04f1a1536e203543"
          ],
          "data": "0x00000000000000000000000000000000000000000000021e19e0c9bab23fffef",
          "blockHash": "0xe71d50589020126a9d4258b3ce4c7dbe447b0afd11e189acd624d2c718690516",
          "blockNumber": "0xa02a06",
          "blockTimestamp": "0x69bfa438",
          "transactionHash": "0xab6130e5ba713624ecfd42eed718ef9a1a5c0f49404c3b5b4a1c6c4a1b86495d",
          "transactionIndex": "0x6a",
          "logIndex": "0x1d5",
          "removed": false
        }
      ],
      "logsBloom": "0x00000000000000000000001004000000000000000000000000000000080000000000000000000040080000000000000000000100040000000000000000000000000000800000040000000008000000000000000800000000000000000001000000000000020000000000000080000800008000000000100000000810000000000000002001000000008010000000000000000000000000000000000000000004000004000000040000000000000000000000200000400000000000000000000000000002000000100000000000000000000000000000000000001800000020001000000000000000000000000000000004000000000000040000000000000000",
      "type": "0x2",
      "transactionHash": "0xab6130e5ba713624ecfd42eed718ef9a1a5c0f49404c3b5b4a1c6c4a1b86495d",
      "transactionIndex": "0x6a",
      "blockHash": "0xe71d50589020126a9d4258b3ce4c7dbe447b0afd11e189acd624d2c718690516",
      "blockNumber": "0xa02a06",
      "gasUsed": "0x3dd42",
      "effectiveGasPrice": "0xf4268",
      "from": "0x599cbb31cd468df8022502e69710b01ccf53efa4",
      "to": "0x429ba70129df741b2ca2a85bc3a2a3328e5c09b4",
      "contractAddress": null
    }
  ],
  "libraries": [],
  "pending": [],
  "returns": {},
  "timestamp": 1774167096478,
  "chain": 11155111,
  "commit": "3947a11"
}