{
  "transactions": [
    {
      "hash": "0x69f33d9f0809dc0af4abd5cc19aa096f522081f8ada0138464b3fa419ce2b198",
      "transactionType": "CALL",
      "contractName": null,
      "contractAddress": "0xb0223ea2626d7bee26ab0f0fd0ad9417012719c4",
      "function": "initialize(uint160)",
      "arguments": [
        "792281625142643375935439503360"
      ],
      "transaction": {
        "from": "0x599cbb31cd468df8022502e69710b01ccf53efa4",
        "to": "0xb0223ea2626d7bee26ab0f0fd0ad9417012719c4",
        "gas": "0x17b87",
        "value": "0x0",
        "input": "0xf637731d000000000000000000000000000000000000000a000000000000000000000000",
        "nonce": "0x3",
        "chainId": "0xaa36a7"
      },
      "additionalContracts": [],
      "isFixedGasLimit": false
    }
  ],
  "receipts": [
    {
      "status": "0x1",
      "cumulativeGasUsed": "0x1068805",
      "logs": [
        {
          "address": "0xb0223ea2626d7bee26ab0f0fd0ad9417012719c4",
          "topics": [
            "0x98636036cb66a9c19a37435efc1e90142190214e8abeb821bdba3f2990dd4c95"
          ],
          "data": "0x000000000000000000000000000000000000000a000000000000000000000000000000000000000000000000000000000000000000000000000000000000b3e6",
          "blockHash": "0x4db92926ace7f5d8eea238b00721e7035928d6125fbc107d0b6411d36c9f7954",
          "blockNumber": "0xa00f09",
          "blockTimestamp": "0x69be5630",
          "transactionHash": "0x69f33d9f0809dc0af4abd5cc19aa096f522081f8ada0138464b3fa419ce2b198",
          "transactionIndex": "0x7d",
          "logIndex": "0x25f",
          "removed": false
        }
      ],
      "logsBloom": "0x00002000000000000001000000000000000000000000000000000000000000000000000000000000000000000000000000000000000000000000000000000000000000000000000000000000000000000001000000000000000000000000000000000000000000000000000000000000000000000000000000000000000000000000000000000000000000000000000000000000000000000000000002000000000000000000000000000000000000000000000000000000000000000000080000000000000000000000000000000000200000000000000000000000000000000000000000000000000000000000000000000000000000000000000000000000",
      "type": "0x2",
      "transactionHash": "0x69f33d9f0809dc0af4abd5cc19aa096f522081f8ada0138464b3fa419ce2b198",
      "transactionIndex": "0x7d",
      "blockHash": "0x4db92926ace7f5d8eea238b00721e7035928d6125fbc107d0b6411d36c9f7954",
      "blockNumber": "0xa00f09",
      "gasUsed": "0x112c6",
      "effectiveGasPrice": "0xf4250",
      "from": "0x599cbb31cd468df8022502e69710b01ccf53efa4",
      "to": "0xb0223ea2626d7bee26ab0f0fd0ad9417012719c4",
      "contractAddress": null
    }
  ],
  "libraries": [],
  "pending": [],
  "returns": {},
  "timestamp": 1774081585331,
  "chain": 11155111,
  "commit": null
}